{
  "_format": "hh-sol-artifact-1",
  "contractName": "GMCLandCompensation",
  "sourceName": "contracts/GMCLandCompensation.sol",
  "abi": [
    {
      "inputs": [
        {
          "internalType": "address",
          "name": "initialOwner",
          "type": "address"
        }
      ],
      "stateMutability": "nonpayable",
      "type": "constructor"
    },
    {
      "inputs": [
        {
          "internalType": "address",
          "name": "spender",
          "type": "address"
        },
        {
          "internalType": "uint256",
          "name": "allowance",
          "type": "uint256"
        },
        {
          "internalType": "uint256",
          "name": "needed",
          "type": "uint256"
        }
      ],
      "name": "ERC20InsufficientAllowance",
      "type": "error"
    },
    {
      "inputs": [
        {
          "internalType": "address",
          "name": "sender",
          "type": "address"
        },
        {
          "internalType": "uint256",
          "name": "balance",
          "type": "uint256"
        },
        {
          "internalType": "uint256",
          "name": "needed",
          "type": "uint256"
        }
      ],
      "name": "ERC20InsufficientBalance",
      "type": "error"
    },
    {
      "inputs": [
        {
          "internalType": "address",
          "name": "approver",
          "type": "address"
        }
      ],
      "name": "ERC20InvalidApprover",
      "type": "error"
    },
    {
      "inputs": [
        {
          "internalType": "address",
          "name": "receiver",
          "type": "address"
        }
      ],
      "name": "ERC20InvalidReceiver",
      "type": "error"
    },
    {
      "inputs": [
        {
          "internalType": "address",
          "name": "sender",
          "type": "address"
        }
      ],
      "name": "ERC20InvalidSender",
      "type": "error"
    },
    {
      "inputs": [
        {
          "internalType": "address",
          "name": "spender",
          "type": "address"
        }
      ],
      "name": "ERC20InvalidSpender",
      "type": "error"
    },
    {
      "inputs": [
        {
          "internalType": "address",
          "name": "owner",
          "type": "address"
        }
      ],
      "name": "OwnableInvalidOwner",
      "type": "error"
    },
    {
      "inputs": [
        {
          "internalType": "address",
          "name": "account",
          "type": "address"
        }
      ],
      "name": "OwnableUnauthorizedAccount",
      "type": "error"
    },
    {
      "inputs": [],
      "name": "ReentrancyGuardReentrantCall",
      "type": "error"
    },
    {
      "anonymous": false,
      "inputs": [
        {
          "indexed": true,
          "internalType": "address",
          "name": "owner",
          "type": "address"
        },
        {
          "indexed": true,
          "internalType": "address",
          "name": "spender",
          "type": "address"
        },
        {
          "indexed": false,
          "internalType": "uint256",
          "name": "value",
          "type": "uint256"
        }
      ],
      "name": "Approval",
      "type": "event"
    },
    {
      "anonymous": false,
      "inputs": [
        {
          "indexed": true,
          "internalType": "string",
          "name": "plotId",
          "type": "string"
        },
        {
          "indexed": true,
          "internalType": "address",
          "name": "wallet",
          "type": "address"
        },
        {
          "indexed": false,
          "internalType": "uint256",
          "name": "landValue",
          "type": "uint256"
        },
        {
          "indexed": false,
          "internalType": "uint256",
          "name": "tokenAmount",
          "type": "uint256"
        }
      ],
      "name": "LandPlotRegistered",
      "type": "event"
    },
    {
      "anonymous": false,
      "inputs": [
        {
          "indexed": true,
          "internalType": "string",
          "name": "plotId",
          "type": "string"
        },
        {
          "indexed": true,
          "internalType": "address",
          "name": "newWallet",
          "type": "address"
        }
      ],
      "name": "LandPlotUpdated",
      "type": "event"
    },
    {
      "anonymous": false,
      "inputs": [
        {
          "indexed": true,
          "internalType": "address",
          "name": "previousOwner",
          "type": "address"
        },
        {
          "indexed": true,
          "internalType": "address",
          "name": "newOwner",
          "type": "address"
        }
      ],
      "name": "OwnershipTransferred",
      "type": "event"
    },
    {
      "anonymous": false,
      "inputs": [
        {
          "indexed": true,
          "internalType": "uint256",
          "name": "orderId",
          "type": "uint256"
        },
        {
          "indexed": true,
          "internalType": "address",
          "name": "seller",
          "type": "address"
        },
        {
          "indexed": false,
          "internalType": "uint256",
          "name": "amountReturned",
          "type": "uint256"
        }
      ],
      "name": "SellOrderCancelled",
      "type": "event"
    },
    {
      "anonymous": false,
      "inputs": [
        {
          "indexed": true,
          "internalType": "uint256",
          "name": "orderId",
          "type": "uint256"
        },
        {
          "indexed": true,
          "internalType": "address",
          "name": "seller",
          "type": "address"
        },
        {
          "indexed": false,
          "internalType": "uint256",
          "name": "amount",
          "type": "uint256"
        },
        {
          "indexed": false,
          "internalType": "uint256",
          "name": "pricePerTokenWei",
          "type": "uint256"
        }
      ],
      "name": "SellOrderCreated",
      "type": "event"
    },
    {
      "anonymous": false,
      "inputs": [
        {
          "indexed": true,
          "internalType": "uint256",
          "name": "orderId",
          "type": "uint256"
        },
        {
          "indexed": true,
          "internalType": "address",
          "name": "buyer",
          "type": "address"
        },
        {
          "indexed": false,
          "internalType": "uint256",
          "name": "amount",
          "type": "uint256"
        },
        {
          "indexed": false,
          "internalType": "uint256",
          "name": "totalPaidWei",
          "type": "uint256"
        }
      ],
      "name": "SellOrderFilled",
      "type": "event"
    },
    {
      "anonymous": false,
      "inputs": [
        {
          "indexed": true,
          "internalType": "string",
          "name": "plotId",
          "type": "string"
        },
        {
          "indexed": true,
          "internalType": "address",
          "name": "to",
          "type": "address"
        },
        {
          "indexed": false,
          "internalType": "uint256",
          "name": "amount",
          "type": "uint256"
        }
      ],
      "name": "TokensAllocatedFromPlot",
      "type": "event"
    },
    {
      "anonymous": false,
      "inputs": [
        {
          "indexed": false,
          "internalType": "uint256",
          "name": "oldRate",
          "type": "uint256"
        },
        {
          "indexed": false,
          "internalType": "uint256",
          "name": "newRate",
          "type": "uint256"
        }
      ],
      "name": "TokensPerUnitUpdated",
      "type": "event"
    },
    {
      "anonymous": false,
      "inputs": [
        {
          "indexed": true,
          "internalType": "address",
          "name": "from",
          "type": "address"
        },
        {
          "indexed": true,
          "internalType": "address",
          "name": "to",
          "type": "address"
        },
        {
          "indexed": false,
          "internalType": "uint256",
          "name": "value",
          "type": "uint256"
        }
      ],
      "name": "Transfer",
      "type": "event"
    },
    {
      "inputs": [
        {
          "internalType": "address",
          "name": "from",
          "type": "address"
        },
        {
          "internalType": "uint256",
          "name": "amount",
          "type": "uint256"
        }
      ],
      "name": "adminBurn",
      "outputs": [],
      "stateMutability": "nonpayable",
      "type": "function"
    },
    {
      "inputs": [
        {
          "internalType": "address",
          "name": "to",
          "type": "address"
        },
        {
          "internalType": "uint256",
          "name": "amount",
          "type": "uint256"
        }
      ],
      "name": "adminMint",
      "outputs": [],
      "stateMutability": "nonpayable",
      "type": "function"
    },
    {
      "inputs": [
        {
          "internalType": "uint256",
          "name": "",
          "type": "uint256"
        }
      ],
      "name": "allPlotIds",
      "outputs": [
        {
          "internalType": "string",
          "name": "",
          "type": "string"
        }
      ],
      "stateMutability": "view",
      "type": "function"
    },
    {
      "inputs": [
        {
          "internalType": "string",
          "name": "plotId",
          "type": "string"
        },
        {
          "internalType": "address",
          "name": "toWallet",
          "type": "address"
        },
        {
          "internalType": "uint256",
          "name": "amount",
          "type": "uint256"
        }
      ],
      "name": "allocateTokensFromPlot",
      "outputs": [],
      "stateMutability": "nonpayable",
      "type": "function"
    },
    {
      "inputs": [
        {
          "internalType": "address",
          "name": "owner",
          "type": "address"
        },
        {
          "internalType": "address",
          "name": "spender",
          "type": "address"
        }
      ],
      "name": "allowance",
      "outputs": [
        {
          "internalType": "uint256",
          "name": "",
          "type": "uint256"
        }
      ],
      "stateMutability": "view",
      "type": "function"
    },
    {
      "inputs": [
        {
          "internalType": "address",
          "name": "spender",
          "type": "address"
        },
        {
          "internalType": "uint256",
          "name": "value",
          "type": "uint256"
        }
      ],
      "name": "approve",
      "outputs": [
        {
          "internalType": "bool",
          "name": "",
          "type": "bool"
        }
      ],
      "stateMutability": "nonpayable",
      "type": "function"
    },
    {
      "inputs": [
        {
          "internalType": "address",
          "name": "account",
          "type": "address"
        }
      ],
      "name": "balanceOf",
      "outputs": [
        {
          "internalType": "uint256",
          "name": "",
          "type": "uint256"
        }
      ],
      "stateMutability": "view",
      "type": "function"
    },
    {
      "inputs": [
        {
          "internalType": "uint256",
          "name": "orderId",
          "type": "uint256"
        },
        {
          "internalType": "uint256",
          "name": "amountToBuy",
          "type": "uint256"
        }
      ],
      "name": "buyFromOrder",
      "outputs": [],
      "stateMutability": "payable",
      "type": "function"
    },
    {
      "inputs": [
        {
          "internalType": "uint256",
          "name": "orderId",
          "type": "uint256"
        }
      ],
      "name": "cancelSellOrder",
      "outputs": [],
      "stateMutability": "nonpayable",
      "type": "function"
    },
    {
      "inputs": [
        {
          "internalType": "uint256",
          "name": "amount",
          "type": "uint256"
        },
        {
          "internalType": "uint256",
          "name": "pricePerTokenWei",
          "type": "uint256"
        }
      ],
      "name": "createSellOrder",
      "outputs": [
        {
          "internalType": "uint256",
          "name": "orderId",
          "type": "uint256"
        }
      ],
      "stateMutability": "nonpayable",
      "type": "function"
    },
    {
      "inputs": [],
      "name": "decimals",
      "outputs": [
        {
          "internalType": "uint8",
          "name": "",
          "type": "uint8"
        }
      ],
      "stateMutability": "view",
      "type": "function"
    },
    {
      "inputs": [],
      "name": "getAllPlotIds",
      "outputs": [
        {
          "internalType": "string[]",
          "name": "",
          "type": "string[]"
        }
      ],
      "stateMutability": "view",
      "type": "function"
    },
    {
      "inputs": [],
      "name": "getMyInfo",
      "outputs": [
        {
          "internalType": "uint256",
          "name": "tokenBalance",
          "type": "uint256"
        },
        {
          "internalType": "uint256",
          "name": "totalEarned",
          "type": "uint256"
        },
        {
          "internalType": "uint256",
          "name": "totalTokensBought",
          "type": "uint256"
        },
        {
          "internalType": "uint256",
          "name": "totalTokensSold",
          "type": "uint256"
        },
        {
          "internalType": "string[]",
          "name": "myPlots",
          "type": "string[]"
        },
        {
          "components": [
            {
              "internalType": "string",
              "name": "plotId",
              "type": "string"
            },
            {
              "internalType": "string",
              "name": "dzongkhag",
              "type": "string"
            },
            {
              "internalType": "string",
              "name": "gewog",
              "type": "string"
            },
            {
              "internalType": "string",
              "name": "thram",
              "type": "string"
            },
            {
              "internalType": "string",
              "name": "ownerName",
              "type": "string"
            },
            {
              "internalType": "string",
              "name": "ownerCid",
              "type": "string"
            },
            {
              "internalType": "string",
              "name": "ownType",
              "type": "string"
            },
            {
              "internalType": "string",
              "name": "majorCategory",
              "type": "string"
            },
            {
              "internalType": "string",
              "name": "landType",
              "type": "string"
            },
            {
              "internalType": "string",
              "name": "plotClass",
              "type": "string"
            },
            {
              "internalType": "uint256",
              "name": "areaAc",
              "type": "uint256"
            },
            {
              "internalType": "uint256",
              "name": "landValue",
              "type": "uint256"
            },
            {
              "internalType": "uint256",
              "name": "allocatedTokens",
              "type": "uint256"
            },
            {
              "internalType": "uint256",
              "name": "myTokensFromThisPlot",
              "type": "uint256"
            },
            {
              "internalType": "address",
              "name": "wallet",
              "type": "address"
            },
            {
              "internalType": "bool",
              "name": "exists",
              "type": "bool"
            }
          ],
          "internalType": "struct GMCLandCompensation.LandPlotView[]",
          "name": "fullPlotDetails",
          "type": "tuple[]"
        }
      ],
      "stateMutability": "view",
      "type": "function"
    },
    {
      "inputs": [],
      "name": "getPlotCount",
      "outputs": [
        {
          "internalType": "uint256",
          "name": "",
          "type": "uint256"
        }
      ],
      "stateMutability": "view",
      "type": "function"
    },
    {
      "inputs": [
        {
          "internalType": "uint256",
          "name": "index",
          "type": "uint256"
        }
      ],
      "name": "getPlotIdAt",
      "outputs": [
        {
          "internalType": "string",
          "name": "",
          "type": "string"
        }
      ],
      "stateMutability": "view",
      "type": "function"
    },
    {
      "inputs": [
        {
          "internalType": "address",
          "name": "user",
          "type": "address"
        }
      ],
      "name": "getUserPlotBreakdown",
      "outputs": [
        {
          "internalType": "uint256",
          "name": "tokenBalance",
          "type": "uint256"
        },
        {
          "internalType": "uint256",
          "name": "totalEarned",
          "type": "uint256"
        },
        {
          "internalType": "uint256",
          "name": "totalTokensBought",
          "type": "uint256"
        },
        {
          "internalType": "uint256",
          "name": "totalTokensSold",
          "type": "uint256"
        },
        {
          "internalType": "string[]",
          "name": "plotIds",
          "type": "string[]"
        },
        {
          "components": [
            {
              "internalType": "string",
              "name": "plotId",
              "type": "string"
            },
            {
              "internalType": "string",
              "name": "dzongkhag",
              "type": "string"
            },
            {
              "internalType": "string",
              "name": "gewog",
              "type": "string"
            },
            {
              "internalType": "string",
              "name": "thram",
              "type": "string"
            },
            {
              "internalType": "string",
              "name": "ownerName",
              "type": "string"
            },
            {
              "internalType": "string",
              "name": "ownerCid",
              "type": "string"
            },
            {
              "internalType": "string",
              "name": "ownType",
              "type": "string"
            },
            {
              "internalType": "string",
              "name": "majorCategory",
              "type": "string"
            },
            {
              "internalType": "string",
              "name": "landType",
              "type": "string"
            },
            {
              "internalType": "string",
              "name": "plotClass",
              "type": "string"
            },
            {
              "internalType": "uint256",
              "name": "areaAc",
              "type": "uint256"
            },
            {
              "internalType": "uint256",
              "name": "landValue",
              "type": "uint256"
            },
            {
              "internalType": "uint256",
              "name": "allocatedTokens",
              "type": "uint256"
            },
            {
              "internalType": "uint256",
              "name": "myTokensFromThisPlot",
              "type": "uint256"
            },
            {
              "internalType": "address",
              "name": "wallet",
              "type": "address"
            },
            {
              "internalType": "bool",
              "name": "exists",
              "type": "bool"
            }
          ],
          "internalType": "struct GMCLandCompensation.LandPlotView[]",
          "name": "plotDetails",
          "type": "tuple[]"
        }
      ],
      "stateMutability": "view",
      "type": "function"
    },
    {
      "inputs": [
        {
          "internalType": "address",
          "name": "wallet",
          "type": "address"
        }
      ],
      "name": "getWalletPlots",
      "outputs": [
        {
          "internalType": "string[]",
          "name": "",
          "type": "string[]"
        }
      ],
      "stateMutability": "view",
      "type": "function"
    },
    {
      "inputs": [
        {
          "internalType": "string",
          "name": "plotId",
          "type": "string"
        }
      ],
      "name": "isPlotIndexed",
      "outputs": [
        {
          "internalType": "bool",
          "name": "",
          "type": "bool"
        }
      ],
      "stateMutability": "view",
      "type": "function"
    },
    {
      "inputs": [],
      "name": "name",
      "outputs": [
        {
          "internalType": "string",
          "name": "",
          "type": "string"
        }
      ],
      "stateMutability": "view",
      "type": "function"
    },
    {
      "inputs": [],
      "name": "owner",
      "outputs": [
        {
          "internalType": "address",
          "name": "",
          "type": "address"
        }
      ],
      "stateMutability": "view",
      "type": "function"
    },
    {
      "inputs": [
        {
          "internalType": "string",
          "name": "",
          "type": "string"
        }
      ],
      "name": "plots",
      "outputs": [
        {
          "internalType": "string",
          "name": "plotId",
          "type": "string"
        },
        {
          "internalType": "string",
          "name": "dzongkhag",
          "type": "string"
        },
        {
          "internalType": "string",
          "name": "gewog",
          "type": "string"
        },
        {
          "internalType": "string",
          "name": "thram",
          "type": "string"
        },
        {
          "internalType": "string",
          "name": "ownerName",
          "type": "string"
        },
        {
          "internalType": "string",
          "name": "ownerCid",
          "type": "string"
        },
        {
          "internalType": "string",
          "name": "ownType",
          "type": "string"
        },
        {
          "internalType": "string",
          "name": "majorCategory",
          "type": "string"
        },
        {
          "internalType": "string",
          "name": "landType",
          "type": "string"
        },
        {
          "internalType": "string",
          "name": "plotClass",
          "type": "string"
        },
        {
          "internalType": "uint256",
          "name": "areaAc",
          "type": "uint256"
        },
        {
          "internalType": "uint256",
          "name": "landValue",
          "type": "uint256"
        },
        {
          "internalType": "uint256",
          "name": "allocatedTokens",
          "type": "uint256"
        },
        {
          "internalType": "address",
          "name": "wallet",
          "type": "address"
        },
        {
          "internalType": "bool",
          "name": "exists",
          "type": "bool"
        }
      ],
      "stateMutability": "view",
      "type": "function"
    },
    {
      "inputs": [
        {
          "internalType": "string",
          "name": "plotId",
          "type": "string"
        },
        {
          "internalType": "string",
          "name": "dzongkhag",
          "type": "string"
        },
        {
          "internalType": "string",
          "name": "gewog",
          "type": "string"
        },
        {
          "internalType": "string",
          "name": "thram",
          "type": "string"
        },
        {
          "internalType": "string",
          "name": "ownerName",
          "type": "string"
        },
        {
          "internalType": "string",
          "name": "ownerCid",
          "type": "string"
        },
        {
          "internalType": "string",
          "name": "ownType",
          "type": "string"
        },
        {
          "internalType": "string",
          "name": "majorCategory",
          "type": "string"
        },
        {
          "internalType": "string",
          "name": "landType",
          "type": "string"
        },
        {
          "internalType": "string",
          "name": "plotClass",
          "type": "string"
        },
        {
          "internalType": "uint256",
          "name": "areaAcTimes1e4",
          "type": "uint256"
        },
        {
          "internalType": "uint256",
          "name": "landValue",
          "type": "uint256"
        },
        {
          "internalType": "address",
          "name": "wallet",
          "type": "address"
        }
      ],
      "name": "registerLandPlot",
      "outputs": [],
      "stateMutability": "nonpayable",
      "type": "function"
    },
    {
      "inputs": [],
      "name": "renounceOwnership",
      "outputs": [],
      "stateMutability": "nonpayable",
      "type": "function"
    },
    {
      "inputs": [
        {
          "internalType": "uint256",
          "name": "",
          "type": "uint256"
        }
      ],
      "name": "sellOrders",
      "outputs": [
        {
          "internalType": "uint256",
          "name": "id",
          "type": "uint256"
        },
        {
          "internalType": "address",
          "name": "seller",
          "type": "address"
        },
        {
          "internalType": "uint256",
          "name": "amountTotal",
          "type": "uint256"
        },
        {
          "internalType": "uint256",
          "name": "amountRemaining",
          "type": "uint256"
        },
        {
          "internalType": "uint256",
          "name": "pricePerTokenWei",
          "type": "uint256"
        },
        {
          "internalType": "bool",
          "name": "active",
          "type": "bool"
        }
      ],
      "stateMutability": "view",
      "type": "function"
    },
    {
      "inputs": [
        {
          "internalType": "uint256",
          "name": "_tokensPerUnit",
          "type": "uint256"
        }
      ],
      "name": "setTokensPerUnit",
      "outputs": [],
      "stateMutability": "nonpayable",
      "type": "function"
    },
    {
      "inputs": [],
      "name": "symbol",
      "outputs": [
        {
          "internalType": "string",
          "name": "",
          "type": "string"
        }
      ],
      "stateMutability": "view",
      "type": "function"
    },
    {
      "inputs": [
        {
          "internalType": "address",
          "name": "",
          "type": "address"
        }
      ],
      "name": "tokensBought",
      "outputs": [
        {
          "internalType": "uint256",
          "name": "",
          "type": "uint256"
        }
      ],
      "stateMutability": "view",
      "type": "function"
    },
    {
      "inputs": [
        {
          "internalType": "address",
          "name": "",
          "type": "address"
        },
        {
          "internalType": "string",
          "name": "",
          "type": "string"
        }
      ],
      "name": "tokensFromPlot",
      "outputs": [
        {
          "internalType": "uint256",
          "name": "",
          "type": "uint256"
        }
      ],
      "stateMutability": "view",
      "type": "function"
    },
    {
      "inputs": [],
      "name": "tokensPerUnit",
      "outputs": [
        {
          "internalType": "uint256",
          "name": "",
          "type": "uint256"
        }
      ],
      "stateMutability": "view",
      "type": "function"
    },
    {
      "inputs": [
        {
          "internalType": "address",
          "name": "",
          "type": "address"
        }
      ],
      "name": "tokensSold",
      "outputs": [
        {
          "internalType": "uint256",
          "name": "",
          "type": "uint256"
        }
      ],
      "stateMutability": "view",
      "type": "function"
    },
    {
      "inputs": [
        {
          "internalType": "address",
          "name": "",
          "type": "address"
        }
      ],
      "name": "totalProceeds",
      "outputs": [
        {
          "internalType": "uint256",
          "name": "",
          "type": "uint256"
        }
      ],
      "stateMutability": "view",
      "type": "function"
    },
    {
      "inputs": [],
      "name": "totalSupply",
      "outputs": [
        {
          "internalType": "uint256",
          "name": "",
          "type": "uint256"
        }
      ],
      "stateMutability": "view",
      "type": "function"
    },
    {
      "inputs": [
        {
          "internalType": "address",
          "name": "to",
          "type": "address"
        },
        {
          "internalType": "uint256",
          "name": "value",
          "type": "uint256"
        }
      ],
      "name": "transfer",
      "outputs": [
        {
          "internalType": "bool",
          "name": "",
          "type": "bool"
        }
      ],
      "stateMutability": "nonpayable",
      "type": "function"
    },
    {
      "inputs": [
        {
          "internalType": "address",
          "name": "from",
          "type": "address"
        },
        {
          "internalType": "address",
          "name": "to",
          "type": "address"
        },
        {
          "internalType": "uint256",
          "name": "value",
          "type": "uint256"
        }
      ],
      "name": "transferFrom",
      "outputs": [
        {
          "internalType": "bool",
          "name": "",
          "type": "bool"
        }
      ],
      "stateMutability": "nonpayable",
      "type": "function"
    },
    {
      "inputs": [
        {
          "internalType": "address",
          "name": "newOwner",
          "type": "address"
        }
      ],
      "name": "transferOwnership",
      "outputs": [],
      "stateMutability": "nonpayable",
      "type": "function"
    },
    {
      "inputs": [
        {
          "internalType": "string",
          "name": "plotId",
          "type": "string"
        },
        {
          "internalType": "address",
          "name": "newWallet",
          "type": "address"
        }
      ],
      "name": "updatePlotWallet",
      "outputs": [],
      "stateMutability": "nonpayable",
      "type": "function"
    },
    {
      "inputs": [
        {
          "internalType": "address",
          "name": "",
          "type": "address"
        },
        {
          "internalType": "uint256",
          "name": "",
          "type": "uint256"
        }
      ],
      "name": "walletPlots",
      "outputs": [
        {
          "internalType": "string",
          "name": "",
          "type": "string"
        }
      ],
      "stateMutability": "view",
      "type": "function"
    },
    {
      "stateMutability": "payable",
      "type": "receive"
    }
  ],
  "bytecode": "0x6080604052346103ad57612d4a6020813803918261001c816103b2565b9384928339810103126103ad57516001600160a01b038116908190036103ad5761004660406103b2565b90600e82526d23a6a1902630b732102a37b5b2b760911b602083015261006c60406103b2565b600581526411d350d31560da1b602082015282519091906001600160401b0381116102b657600354600181811c911680156103a3575b602082101461029657601f811161033e575b506020601f82116001146102d757819293946000926102cc575b50508160011b916000199060031b1c1916176003555b81516001600160401b0381116102b657600454600181811c911680156102ac575b602082101461029657601f8111610231575b50602092601f82116001146101cc57928192936000926101c1575b50508160011b916000199060031b1c1916176004555b80156101ab57600580546001600160a01b03198116831790915560405191906001600160a01b03167f8be0079c531659141344cd1fd0a4f28419497f9722a3daafe3b4186f6b6457e0600080a36001600655600160125561297290816103d88239f35b631e4fbdf760e01b600052600060045260246000fd5b015190503880610132565b601f198216936004600052806000209160005b8681106102195750836001959610610200575b505050811b01600455610148565b015160001960f88460031b161c191690553880806101f2565b919260206001819286850151815501940192016101df565b60046000527f8a35acfbc15ff81a39ae7d344fd709f28e8600b4aa8c65c6b64bfe7fe36bd19b601f830160051c8101916020841061028c575b601f0160051c01905b8181106102805750610117565b60008155600101610273565b909150819061026a565b634e487b7160e01b600052602260045260246000fd5b90607f1690610105565b634e487b7160e01b600052604160045260246000fd5b0151905038806100ce565b601f198216906003600052806000209160005b8181106103265750958360019596971061030d575b505050811b016003556100e4565b015160001960f88460031b161c191690553880806102ff565b9192602060018192868b0151815501940192016102ea565b60036000527fc2575a0e9e593c00f959f8c92f12db2869c3395a3b0502d05e2516446f71f85b601f830160051c81019160208410610399575b601f0160051c01905b81811061038d57506100b4565b60008155600101610380565b9091508190610377565b90607f16906100a2565b600080fd5b6040519190601f01601f191682016001600160401b038111838210176102b65760405256fe6080604052600436101561001b575b361561001957600080fd5b005b60003560e01c806306dd041914611d1457806306fdde0314611c6c578063095ea7b314611be65780630b200b5514611b9957806312a4413614611b3157806318160ddd14611b135780631a46e42a14611a305780631d865a051461199a5780631df681021461183357806322c6e6e21461181557806323b872dd14611728578063264d7797146116ee5780632d81690814611516578063313ce567146114fa5780634a8393f31461148a5780634afb66d514611450578063633f515e146111c7578063685f205114611162578063691380a314610cba5780636f29b1a914610c5c57806370024bc214610bc957806370a0823114610b8f578063715018a614610b32578063781a393614610aff5780637daa10ce146108935780638da5cb5b1461086a57806395d89b41146107895780639b4dda1e1461069b578063a9059cbb1461066a578063aa36fc991461049a578063b1b128fb146103b6578063d455210a1461031c578063dd62ed3e146102cb578063e364440314610291578063e58306f914610264578063f2fde38b146101da5763f8d287680361000e57346101d55760003660031901126101d5576020600754604051908152f35b600080fd5b346101d55760203660031901126101d5576101f3611dd3565b6101fb612673565b6001600160a01b0316801561024e57600580546001600160a01b0319811683179091556001600160a01b03167f8be0079c531659141344cd1fd0a4f28419497f9722a3daafe3b4186f6b6457e0600080a3005b631e4fbdf760e01b600052600060045260246000fd5b346101d55760403660031901126101d557610019610280611dd3565b610288612673565b6024359061284a565b346101d55760203660031901126101d5576001600160a01b036102b2611dd3565b1660005260116020526020604060002054604051908152f35b346101d55760403660031901126101d5576102e4611dd3565b6102ec611de9565b6001600160a01b039182166000908152600160209081526040808320949093168252928352819020549051908152f35b346101d55760003660031901126101d557600a54610339816122a2565b906103476040519283611ee6565b80825260208201600a6000527fc65a7bb8d6351c1cf70c95a316cc6a92839c986682d98bc35f958f4883f9d2a86000915b838310610399576040516020808252819061039590820188611fbc565b0390f35b6001602081926103a885611f07565b815201920192019190610378565b346101d55760403660031901126101d5576004356001600160401b0381116101d5576103e69036906004016121f6565b6104736103f1611de9565b6103f9612673565b6001600160a01b03169161040e8315156124a1565b600d60405160208184516104258183858901611dff565b810160088152030190200161044060ff825460a01c16612636565b836bffffffffffffffffffffffff60a01b82541617905582600052600960205261046e8160406000206125e9565b612616565b7f3093e6ec25258b993bc59c90418df58ad94d5e9410052168e2d0265006d5ceb9600080a3005b346101d55760203660031901126101d5576004356001600160401b0381116101d5576104ca9036906004016121f6565b60405181818093516020819301916104e192611dff565b8101600881520360200190206104f681611f07565b61050260018301611f07565b9161050f60028201611f07565b61051b60038301611f07565b9161052860048201611f07565b9261053560058301611f07565b61054160068401611f07565b61054d60078501611f07565b61055960088601611f07565b9161056660098701611f07565b93600a87015498600b88015496600c89015498600d0154996040519d8e809e6101e082526101e0820161059891611e22565b9080820390602001526105aa91611e22565b8d810360408f01526105bb91611e22565b8c810360608e01526105cc91611e22565b8b810360808d01526105dd91611e22565b8a810360a08c01526105ee91611e22565b89810360c08b01526105ff91611e22565b88810360e08a015261061091611e22565b87810361010089015261062291611e22565b86810361012088015261063491611e22565b93610140860152610160850152610180840152600160a01b6001900381166101a084015260a01c60ff1615156101c08301520390f35b346101d55760403660031901126101d557610690610686611dd3565b60243590336126be565b602060405160018152f35b346101d55760603660031901126101d5576004356001600160401b0381116101d5576106cb9036906004016121f6565b6106d3611de9565b907f7da62a25bb1eb9239dcc4bf9704255725861fcc200fa9871ba147b2fafcb751a602061077f60443593610706612673565b6001600160a01b0386169561046e90869083906107248a15156124a1565b61072f8315156122b9565b600c604051888185516107458183858a01611dff565b8101600881520301902061076260ff600d83015460a01c16612636565b0161076e848254612464565b905561077a838261284a565b6128a8565b92604051908152a3005b346101d55760003660031901126101d55760405160006004546107ab81611e90565b808452906001811690811561084657506001146107e7575b610395836107d381850382611ee6565b604051918291602083526020830190611e22565b600460009081527f8a35acfbc15ff81a39ae7d344fd709f28e8600b4aa8c65c6b64bfe7fe36bd19b939250905b80821061082c575090915081016020016107d36107c3565b919260018160209254838588010152019101909291610814565b60ff191660208086019190915291151560051b840190910191506107d390506107c3565b346101d55760003660031901126101d5576005546040516001600160a01b039091168152602090f35b346101d55760003660031901126101d5573360009081526020818152604080832054600f83528184205460108452828520546011855283862054600d9095529285208054909591949293909290825b848110610ab957506108fc6108f68461231f565b93612369565b93600097885b828a1061091f57505050610395949596506040519687968761202b565b61093261092c8b84611e78565b50611f07565b33600052600c60205261094960406000208261223d565b548015610aae5791610aa59160ff600194604051602081855161096f8183858a01611dff565b8101600881520301902092610984858d612430565b5261098f848c612430565b50600a83015490600b840154600c85015490600d86015493610a526009604051986109b98a611eca565b6109c281611f07565b8a526109cf8d8201611f07565b60208b01526109e060028201611f07565b60408b01526109f160038201611f07565b60608b0152610a0260048201611f07565b60808b0152610a1360058201611f07565b60a08b0152610a2460068201611f07565b60c08b0152610a3560078201611f07565b60e08b0152610a4660088201611f07565b6101008b015201611f07565b6101208801526101408701526101608601526101808501526101a0840152858060a01b0381166101c084015260a01c1615156101e0820152610a94828b612430565b52610a9f818a612430565b506122fa565b995b0198610902565b505098600190610aa7565b610add610ac961092c838b611e78565b33600052600c60205260406000209061223d565b54610aeb575b6001016108e2565b92610af76001916122fa565b939050610ae3565b346101d55760203660031901126101d557600435600a548110156101d5576107d3610b2c61039592611e47565b90611fab565b346101d55760003660031901126101d557610b4b612673565b600580546001600160a01b031981169091556000906001600160a01b03167f8be0079c531659141344cd1fd0a4f28419497f9722a3daafe3b4186f6b6457e08280a3005b346101d55760203660031901126101d5576001600160a01b03610bb0611dd3565b1660005260006020526020604060002054604051908152f35b346101d55760203660031901126101d557600435610be5612673565b8015610c245760407ff0f642e08be877441ce241f624d5cb16e80a6ea614ed288fbcb1f46f93add68f91600754908060075582519182526020820152a1005b60405162461bcd60e51b815260206004820152601060248201526f052617465206d757374206265203e20360841b6044820152606490fd5b346101d55760203660031901126101d5576004356001600160401b0381116101d557610ca56020610c92819336906004016121f6565b8160405193828580945193849201611dff565b8101600b815203019020541515604051908152f35b346101d5576101a03660031901126101d5576004356001600160401b0381116101d557610ceb9036906004016121f6565b6024356001600160401b0381116101d557610d0a9036906004016121f6565b906044356001600160401b0381116101d557610d2a9036906004016121f6565b906064356001600160401b0381116101d557610d4a9036906004016121f6565b926084356001600160401b0381116101d557610d6a9036906004016121f6565b9060a4356001600160401b0381116101d557610d8a9036906004016121f6565b9360c4356001600160401b0381116101d557610daa9036906004016121f6565b60e4356001600160401b0381116101d557610dc99036906004016121f6565b610104356001600160401b0381116101d557610de99036906004016121f6565b90610124356001600160401b0381116101d557610e0a9036906004016121f6565b926101643598610184359760018060a01b0389169b8c8a036101d557610e2e612673565b6040518b5160208d019991908190610e4781838e611dff565b810160088152036020019020600d015460a01c60ff1661112757610e6c8e15156124a1565b600754156110ed578c156110af576040518c518190610e8c81838e611dff565b81016008815203602001902099610ea38d8c6124de565b610eb09060018c016124de565b610ebd9060028b016124de565b610eca9060038a016124de565b610ed790600489016124de565b610ee490600588016124de565b610ef190600687016124de565b610efe90600786016124de565b610f0b90600885016124de565b610f1890600984016124de565b61014435600a830155600d8201805460ff60a01b1988166001600160a81b031990911617600160a01b17905560405184518190610f56818386611dff565b8101600b81520360200190205415610ff2575b5092610fce7f5bffeaa926ea0f1f6a50193d6195b253a3c689ed8c60bc91ddf6c8280e0d0345936040938684600b600c990155610fa860075486612444565b9788910155868281610fdc575b50505086600052600960205261046e81856000206125e9565b9382519182526020820152a3005b8261077a83610fea9561284a565b878682610fb5565b91939092600a54600160401b811015611099578060016110179201600a55600a611e78565b91909161108357600c957f5bffeaa926ea0f1f6a50193d6195b253a3c689ed8c60bc91ddf6c8280e0d03459560409561105384610fce966124de565b61106c6020600a54928951809381928951928391611dff565b8101600b8152030190205593965093509350610f69565b634e487b7160e01b600052600060045260246000fd5b634e487b7160e01b600052604160045260246000fd5b60405162461bcd60e51b815260206004820152601660248201527504c616e642076616c7565206d757374206265203e20360541b6044820152606490fd5b60405162461bcd60e51b8152602060048201526012602482015271151bdad95b881c985d19481b9bdd081cd95d60721b6044820152606490fd5b60405162461bcd60e51b8152602060048201526013602482015272506c6f7420616c72656164792065786973747360681b6044820152606490fd5b346101d55760403660031901126101d55761117b611dd3565b6024356001600160401b0381116101d5576020916111a06111be9236906004016121f6565b6001600160a01b039091166000908152600c8452604090209061223d565b54604051908152f35b6111d036612015565b906111d961269c565b806000526013602052604060002060058101908154906111fb60ff8316612263565b6112068515156122b9565b600381019283549283871161140b57670de0b6b3a764000061122c600485015489612444565b04948534106113cf57600160009594869594869594899461124e8d8998612457565b809155156113c2575b50506112648a33306126be565b0180546001600160a01b03168352600f602052604083208054611288908490612464565b90553383526010602052604083206112a18a8254612464565b905580546001600160a01b0316835260116020526040832080546112c6908b90612464565b9055546001600160a01b03165af16112dc612471565b501561137d576112ec8134612457565b8061132b575b5060405192835260208301527f868d789fdb4bef729c9163c7ea9215ec181d41d023ca7fa8e3ab46b0db7bf4e660403393a36001600655005b600080808093335af161133c612471565b501561134857836112f2565b60405162461bcd60e51b815260206004820152600d60248201526c1499599d5b990819985a5b1959609a1b6044820152606490fd5b60405162461bcd60e51b815260206004820152601860248201527f5061796d656e7420746f2073656c6c6572206661696c656400000000000000006044820152606490fd5b60ff191690558a80611257565b60405162461bcd60e51b8152602060048201526014602482015273125b9cdd59999a58da595b9d081c185e5b595b9d60621b6044820152606490fd5b60405162461bcd60e51b815260206004820152601a60248201527f4e6f7420656e6f75676820746f6b656e7320696e206f726465720000000000006044820152606490fd5b346101d55760203660031901126101d5576001600160a01b03611471611dd3565b16600052600f6020526020604060002054604051908152f35b346101d55760203660031901126101d557600435600052601360205260c0604060002080549060018060a01b0360018201541690600281015460038201549060ff6005600485015494015416936040519586526020860152604085015260608401526080830152151560a0820152f35b346101d55760003660031901126101d557602060405160128152f35b346101d55760203660031901126101d5576001600160a01b03611537611dd3565b1660008181526020818152604080832054600f83528184205460108452828520546011855283862054600d9095529285208054909691959294919390835b8181106116a8575061158f6115898561231f565b94612369565b946000805b8382106115b05789896103958a8a8a8a6040519687968761202b565b866115be61092c848e611e78565b84600052600c6020526115d560406000208261223d565b5490811561169c579160ff84926116939461161160019760405160208185516116018183858a01611dff565b8101600881520301902095612430565b5261161c848d612430565b50600a83015490600b840154600c85015490600d860154936116466009604051986109b98a611eca565b6101208801526101408701526101608601526101808501526101a0840152858060a01b0381166101c084015260a01c1615156101e0820152611688828c612430565b52610a9f818b612430565b915b0190611594565b50505090600190611695565b6116cc6116b861092c838c611e78565b87600052600c60205260406000209061223d565b546116da575b600101611575565b936116e66001916122fa565b9490506116d2565b346101d55760203660031901126101d5576001600160a01b0361170f611dd3565b1660005260106020526020604060002054604051908152f35b346101d55760603660031901126101d557611741611dd3565b611749611de9565b6001600160a01b0382166000818152600160209081526040808320338452909152902054909260443592916000198110611789575b5061069093506126be565b8381106117f85784156117e25733156117cc57610690946000526001602052604060002060018060a01b033316600052602052836040600020910390558461177e565b634a1406b160e11b600052600060045260246000fd5b63e602df0560e01b600052600060045260246000fd5b8390637dc7a0d960e11b6000523360045260245260445260646000fd5b346101d55760003660031901126101d5576020600a54604051908152f35b346101d55761184136612015565b9061184a61269c565b6118558115156122b9565b8115611961576118668130336126be565b60125490611873826122fa565b6012556040519260c08401938085106001600160401b03861117611099576020946040528381526005858201913383526040810185815260608201868152608083019186835260a0840195600187528960005260138b5260406000209451855560018060a01b03905116600185019060018060a01b03166bffffffffffffffffffffffff60a01b825416179055516002840155516003830155516004820155019051151560ff8019835416911617905560405191825283820152817f80a49be05481ef1a555cd6ea5845b05ffa157f18a6e61d3030f9bc5d25f3294a60403393a36001600655604051908152f35b60405162461bcd60e51b815260206004820152601160248201527005072696365206d757374206265203e203607c1b6044820152606490fd5b346101d55760203660031901126101d5576001600160a01b036119bb611dd3565b166000526009602052604060002080546119d4816122a2565b916119e26040519384611ee6565b818352602083019060005260206000206000915b838310611a13576040516020808252819061039590820188611fbc565b600160208192611a2285611f07565b8152019201920191906119f6565b346101d55760203660031901126101d557600435611a4c61269c565b8060005260136020526040600020906005820191825492611a6f60ff8516612263565b60018201546001600160a01b03163303611add576003600092019081549460ff191690555581611acd575b6040519182527fb3b66e9278cc82d38e08c6ea63c8a306e6e4a14cfde056b77230c8b321238edd60203393a36001600655005b611ad88233306126be565b611a9a565b60405162461bcd60e51b815260206004820152600e60248201526d2737ba103cb7bab91037b93232b960911b6044820152606490fd5b346101d55760003660031901126101d5576020600254604051908152f35b346101d55760203660031901126101d557600435600a54811015611b5e576107d361092c61039592611e47565b60405162461bcd60e51b8152602060048201526013602482015272496e646578206f7574206f6620626f756e647360681b6044820152606490fd5b346101d55760403660031901126101d557611bb2611dd3565b6001600160a01b031660009081526009602052604090208054602435908110156101d557610b2c6107d39161039593611e78565b346101d55760403660031901126101d557611bff611dd3565b6024359033156117e2576001600160a01b03169081156117cc57336000526001602052604060002082600052602052806040600020556040519081527f8c5be1e5ebec7d5bd14f71427d1e84f3dd0314c0f7b2291e5b200ac8c7c3b92560203392a3602060405160018152f35b346101d55760003660031901126101d5576040516000600354611c8e81611e90565b80845290600181169081156108465750600114611cb557610395836107d381850382611ee6565b600360009081527fc2575a0e9e593c00f959f8c92f12db2869c3395a3b0502d05e2516446f71f85b939250905b808210611cfa575090915081016020016107d36107c3565b919260018160209254838588010152019101909291611ce2565b346101d55760403660031901126101d557611d2d611dd3565b60243590611d39612673565b6001600160a01b0316908115611dbd57600090828252816020526040822054818110611da55760208285937fddf252ad1be2c89b69c2b068fc378daa952ba7f163c4a11628f55a4df523b3ef93869787528684520360408620558060025403600255604051908152a380f35b60649363391434e360e21b8452600452602452604452fd5b634b637e8f60e11b600052600060045260246000fd5b600435906001600160a01b03821682036101d557565b602435906001600160a01b03821682036101d557565b60005b838110611e125750506000910152565b8181015183820152602001611e02565b90602091611e3b81518092818552858086019101611dff565b601f01601f1916010190565b600a54811015611e6257600a60005260206000200190600090565b634e487b7160e01b600052603260045260246000fd5b8054821015611e625760005260206000200190600090565b90600182811c92168015611ec0575b6020831014611eaa57565b634e487b7160e01b600052602260045260246000fd5b91607f1691611e9f565b61020081019081106001600160401b0382111761109957604052565b90601f801991011681019081106001600160401b0382111761109957604052565b9060405191826000825492611f1b84611e90565b8084529360018116908115611f895750600114611f42575b50611f4092500383611ee6565b565b90506000929192526020600020906000915b818310611f6d575050906020611f409282010138611f33565b6020919350806001915483858901015201910190918492611f54565b905060209250611f4094915060ff191682840152151560051b82010138611f33565b9061108357611fb990611f07565b90565b9080602083519182815201916020808360051b8301019401926000915b838310611fe857505050505090565b9091929394602080612006600193601f198682030187528951611e22565b97019301930191939290611fd9565b60409060031901126101d5576004359060243590565b949290916120569492865260208601526040850152606084015260c0608084015260c0830190611fbc565b9060a0818303910152815180825260208201916020808360051b8301019401926000915b83831061208957505050505090565b90919293946020806120db836101e08061218161216d6121596121478f6121236121118f8f60019f8e612135966120ff946120ec94601f19908503019052519e8f926102008451918181520190611e22565b9101518f8e90818403910152611e22565b60408d01518c6040818403910152611e22565b60608c01518b820360608d0152611e22565b60808b01518a820360808c0152611e22565b60a08a015189820360a08b0152611e22565b60c089015188820360c08a0152611e22565b60e088015187820360e0890152611e22565b610100870151868203610100880152611e22565b610120860151858203610120870152611e22565b936101408101516101408501526101608101516101608501526101808101516101808501526101a08101516101a0850152878060a01b036101c0820151166101c0850152015115159101529701930193019193929061207a565b6001600160401b03811161109957601f01601f191660200190565b81601f820112156101d55780359061220d826121db565b9261221b6040519485611ee6565b828452602083830101116101d557816000926020809301838601378301015290565b602090612257928260405194838680955193849201611dff565b82019081520301902090565b1561226a57565b60405162461bcd60e51b815260206004820152601060248201526f4f72646572206e6f742061637469766560801b6044820152606490fd5b6001600160401b0381116110995760051b60200190565b156122c057565b60405162461bcd60e51b81526020600482015260126024820152710416d6f756e74206d757374206265203e20360741b6044820152606490fd5b60001981146123095760010190565b634e487b7160e01b600052601160045260246000fd5b90612329826122a2565b6123366040519182611ee6565b8281528092612347601f19916122a2565b019060005b82811061235857505050565b80606060208093850101520161234c565b90612373826122a2565b6123806040519182611ee6565b8281528092612391601f19916122a2565b019060005b8281106123a257505050565b6020906040516123b181611eca565b606081526060838201526060604082015260608082015260606080820152606060a0820152606060c0820152606060e08201526060610100820152606061012082015260006101408201526000610160820152600061018082015260006101a082015260006101c082015260006101e082015282828501015201612396565b8051821015611e625760209160051b010190565b8181029291811591840414171561230957565b9190820391821161230957565b9190820180921161230957565b3d1561249c573d90612482826121db565b916124906040519384611ee6565b82523d6000602084013e565b606090565b156124a857565b60405162461bcd60e51b815260206004820152600e60248201526d125b9d985b1a59081dd85b1b195d60921b6044820152606490fd5b91909182516001600160401b038111611099576124fb8254611e90565b601f81116125a1575b506020601f821160011461253f5781929394600092612534575b50508160011b916000199060031b1c1916179055565b01519050388061251e565b601f1982169083600052806000209160005b81811061258957509583600195969710612570575b505050811b019055565b015160001960f88460031b161c19169055388080612566565b9192602060018192868b015181550194019201612551565b826000526020600020601f830160051c810191602084106125df575b601f0160051c01905b8181106125d35750612504565b600081556001016125c6565b90915081906125bd565b8054600160401b8110156110995761260691600182018155611e78565b91909161108357611f40916124de565b61262e90602060405192828480945193849201611dff565b810103902090565b1561263d57565b60405162461bcd60e51b815260206004820152600e60248201526d141b1bdd081b9bdd08199bdd5b9960921b6044820152606490fd5b6005546001600160a01b0316330361268757565b63118cdaa760e01b6000523360045260246000fd5b6002600654146126ad576002600655565b633ee5aeb560e01b60005260046000fd5b90916001600160a01b03909116908115611dbd576001600160a01b0383169283156128345781612763575b5060008281528060205260408120548281106127495791604082827fddf252ad1be2c89b69c2b068fc378daa952ba7f163c4a11628f55a4df523b3ef958760209652828652038282205586815280845220818154019055604051908152a3565b916064928463391434e360e21b8452600452602452604452fd5b909293839083600052600d6020526040600020956000925b875484108061282b575b1561281e5761279761092c858a611e78565b86600052600c6020526127ae60406000208261223d565b5490811561281257612802926127f76127fc936127d993838211600014612808578394858093612457565b8c600052600c6020526127f060406000208361223d565b558a6128a8565b612457565b936122fa565b9261277b565b8194858093612457565b505092612802906122fa565b50949250945050386126e9565b50801515612785565b63ec442f0560e01b600052600060045260246000fd5b6001600160a01b03169081156128345761286681600254612464565b6002557fddf252ad1be2c89b69c2b068fc378daa952ba7f163c4a11628f55a4df523b3ef602060009284845283825260408420818154019055604051908152a3565b82156129375760018060a01b03169182600052600c6020526128d96128d160406000208461223d565b918254612464565b905581600052600e60205260ff6128f460406000208361223d565b5416156128ff575050565b81611f4092600052600e60205261291a60406000208361223d565b600160ff19825416179055600052600d60205260406000206125e9565b50505056fea26469706673582212200f6f295bf911ad42413af4637693851c6b7a13d92f9edf34711b401c9e71348b64736f6c634300081c0033",
  "linkReferences": {},
  "deployedLinkReferences": {}
}