{
  "_format": "hh-sol-artifact-1",
  "contractName": "GMCLandCompensation",
  "sourceName": "contracts/GMCLandCompensation.sol",
  "abi": [
    {
      "inputs": [
        {
          "internalType": "address",
          "name": "initialOwner",
          "type": "address"
        }
      ],
      "stateMutability": "nonpayable",
      "type": "constructor"
    },
    {
      "inputs": [
        {
          "internalType": "address",
          "name": "spender",
          "type": "address"
        },
        {
          "internalType": "uint256",
          "name": "allowance",
          "type": "uint256"
        },
        {
          "internalType": "uint256",
          "name": "needed",
          "type": "uint256"
        }
      ],
      "name": "ERC20InsufficientAllowance",
      "type": "error"
    },
    {
      "inputs": [
        {
          "internalType": "address",
          "name": "sender",
          "type": "address"
        },
        {
          "internalType": "uint256",
          "name": "balance",
          "type": "uint256"
        },
        {
          "internalType": "uint256",
          "name": "needed",
          "type": "uint256"
        }
      ],
      "name": "ERC20InsufficientBalance",
      "type": "error"
    },
    {
      "inputs": [
        {
          "internalType": "address",
          "name": "approver",
          "type": "address"
        }
      ],
      "name": "ERC20InvalidApprover",
      "type": "error"
    },
    {
      "inputs": [
        {
          "internalType": "address",
          "name": "receiver",
          "type": "address"
        }
      ],
      "name": "ERC20InvalidReceiver",
      "type": "error"
    },
    {
      "inputs": [
        {
          "internalType": "address",
          "name": "sender",
          "type": "address"
        }
      ],
      "name": "ERC20InvalidSender",
      "type": "error"
    },
    {
      "inputs": [
        {
          "internalType": "address",
          "name": "spender",
          "type": "address"
        }
      ],
      "name": "ERC20InvalidSpender",
      "type": "error"
    },
    {
      "inputs": [
        {
          "internalType": "address",
          "name": "owner",
          "type": "address"
        }
      ],
      "name": "OwnableInvalidOwner",
      "type": "error"
    },
    {
      "inputs": [
        {
          "internalType": "address",
          "name": "account",
          "type": "address"
        }
      ],
      "name": "OwnableUnauthorizedAccount",
      "type": "error"
    },
    {
      "inputs": [],
      "name": "ReentrancyGuardReentrantCall",
      "type": "error"
    },
    {
      "anonymous": false,
      "inputs": [
        {
          "indexed": true,
          "internalType": "address",
          "name": "owner",
          "type": "address"
        },
        {
          "indexed": true,
          "internalType": "address",
          "name": "spender",
          "type": "address"
        },
        {
          "indexed": false,
          "internalType": "uint256",
          "name": "value",
          "type": "uint256"
        }
      ],
      "name": "Approval",
      "type": "event"
    },
    {
      "anonymous": false,
      "inputs": [
        {
          "indexed": true,
          "internalType": "string",
          "name": "plotId",
          "type": "string"
        },
        {
          "indexed": true,
          "internalType": "address",
          "name": "wallet",
          "type": "address"
        },
        {
          "indexed": false,
          "internalType": "uint256",
          "name": "tokenAmount",
          "type": "uint256"
        }
      ],
      "name": "LandPlotRegistered",
      "type": "event"
    },
    {
      "anonymous": false,
      "inputs": [
        {
          "indexed": true,
          "internalType": "string",
          "name": "plotId",
          "type": "string"
        },
        {
          "indexed": true,
          "internalType": "address",
          "name": "newWallet",
          "type": "address"
        }
      ],
      "name": "LandPlotUpdated",
      "type": "event"
    },
    {
      "anonymous": false,
      "inputs": [
        {
          "indexed": true,
          "internalType": "address",
          "name": "previousOwner",
          "type": "address"
        },
        {
          "indexed": true,
          "internalType": "address",
          "name": "newOwner",
          "type": "address"
        }
      ],
      "name": "OwnershipTransferred",
      "type": "event"
    },
    {
      "anonymous": false,
      "inputs": [
        {
          "indexed": true,
          "internalType": "uint256",
          "name": "orderId",
          "type": "uint256"
        },
        {
          "indexed": true,
          "internalType": "address",
          "name": "seller",
          "type": "address"
        },
        {
          "indexed": false,
          "internalType": "uint256",
          "name": "amountReturned",
          "type": "uint256"
        }
      ],
      "name": "SellOrderCancelled",
      "type": "event"
    },
    {
      "anonymous": false,
      "inputs": [
        {
          "indexed": true,
          "internalType": "uint256",
          "name": "orderId",
          "type": "uint256"
        },
        {
          "indexed": true,
          "internalType": "address",
          "name": "seller",
          "type": "address"
        },
        {
          "indexed": false,
          "internalType": "uint256",
          "name": "amount",
          "type": "uint256"
        },
        {
          "indexed": false,
          "internalType": "uint256",
          "name": "pricePerTokenWei",
          "type": "uint256"
        }
      ],
      "name": "SellOrderCreated",
      "type": "event"
    },
    {
      "anonymous": false,
      "inputs": [
        {
          "indexed": true,
          "internalType": "uint256",
          "name": "orderId",
          "type": "uint256"
        },
        {
          "indexed": true,
          "internalType": "address",
          "name": "buyer",
          "type": "address"
        },
        {
          "indexed": false,
          "internalType": "uint256",
          "name": "amount",
          "type": "uint256"
        },
        {
          "indexed": false,
          "internalType": "uint256",
          "name": "totalPaidWei",
          "type": "uint256"
        }
      ],
      "name": "SellOrderFilled",
      "type": "event"
    },
    {
      "anonymous": false,
      "inputs": [
        {
          "indexed": true,
          "internalType": "string",
          "name": "plotId",
          "type": "string"
        },
        {
          "indexed": true,
          "internalType": "address",
          "name": "to",
          "type": "address"
        },
        {
          "indexed": false,
          "internalType": "uint256",
          "name": "amount",
          "type": "uint256"
        }
      ],
      "name": "TokensAllocatedFromPlot",
      "type": "event"
    },
    {
      "anonymous": false,
      "inputs": [
        {
          "indexed": true,
          "internalType": "address",
          "name": "from",
          "type": "address"
        },
        {
          "indexed": true,
          "internalType": "address",
          "name": "to",
          "type": "address"
        },
        {
          "indexed": false,
          "internalType": "uint256",
          "name": "value",
          "type": "uint256"
        }
      ],
      "name": "Transfer",
      "type": "event"
    },
    {
      "inputs": [
        {
          "internalType": "address",
          "name": "from",
          "type": "address"
        },
        {
          "internalType": "uint256",
          "name": "amount",
          "type": "uint256"
        }
      ],
      "name": "adminBurn",
      "outputs": [],
      "stateMutability": "nonpayable",
      "type": "function"
    },
    {
      "inputs": [
        {
          "internalType": "address",
          "name": "to",
          "type": "address"
        },
        {
          "internalType": "uint256",
          "name": "amount",
          "type": "uint256"
        }
      ],
      "name": "adminMint",
      "outputs": [],
      "stateMutability": "nonpayable",
      "type": "function"
    },
    {
      "inputs": [
        {
          "internalType": "string",
          "name": "plotId",
          "type": "string"
        },
        {
          "internalType": "address",
          "name": "toWallet",
          "type": "address"
        },
        {
          "internalType": "uint256",
          "name": "amount",
          "type": "uint256"
        }
      ],
      "name": "allocateTokensFromPlot",
      "outputs": [],
      "stateMutability": "nonpayable",
      "type": "function"
    },
    {
      "inputs": [
        {
          "internalType": "address",
          "name": "owner",
          "type": "address"
        },
        {
          "internalType": "address",
          "name": "spender",
          "type": "address"
        }
      ],
      "name": "allowance",
      "outputs": [
        {
          "internalType": "uint256",
          "name": "",
          "type": "uint256"
        }
      ],
      "stateMutability": "view",
      "type": "function"
    },
    {
      "inputs": [
        {
          "internalType": "address",
          "name": "spender",
          "type": "address"
        },
        {
          "internalType": "uint256",
          "name": "value",
          "type": "uint256"
        }
      ],
      "name": "approve",
      "outputs": [
        {
          "internalType": "bool",
          "name": "",
          "type": "bool"
        }
      ],
      "stateMutability": "nonpayable",
      "type": "function"
    },
    {
      "inputs": [
        {
          "internalType": "address",
          "name": "account",
          "type": "address"
        }
      ],
      "name": "balanceOf",
      "outputs": [
        {
          "internalType": "uint256",
          "name": "",
          "type": "uint256"
        }
      ],
      "stateMutability": "view",
      "type": "function"
    },
    {
      "inputs": [
        {
          "internalType": "uint256",
          "name": "orderId",
          "type": "uint256"
        },
        {
          "internalType": "uint256",
          "name": "amountToBuy",
          "type": "uint256"
        }
      ],
      "name": "buyFromOrder",
      "outputs": [],
      "stateMutability": "payable",
      "type": "function"
    },
    {
      "inputs": [
        {
          "internalType": "uint256",
          "name": "orderId",
          "type": "uint256"
        }
      ],
      "name": "cancelSellOrder",
      "outputs": [],
      "stateMutability": "nonpayable",
      "type": "function"
    },
    {
      "inputs": [
        {
          "internalType": "uint256",
          "name": "amount",
          "type": "uint256"
        },
        {
          "internalType": "uint256",
          "name": "pricePerTokenWei",
          "type": "uint256"
        }
      ],
      "name": "createSellOrder",
      "outputs": [
        {
          "internalType": "uint256",
          "name": "orderId",
          "type": "uint256"
        }
      ],
      "stateMutability": "nonpayable",
      "type": "function"
    },
    {
      "inputs": [],
      "name": "decimals",
      "outputs": [
        {
          "internalType": "uint8",
          "name": "",
          "type": "uint8"
        }
      ],
      "stateMutability": "view",
      "type": "function"
    },
    {
      "inputs": [],
      "name": "getMyInfo",
      "outputs": [
        {
          "internalType": "uint256",
          "name": "tokenBalance",
          "type": "uint256"
        },
        {
          "internalType": "uint256",
          "name": "totalEarned",
          "type": "uint256"
        },
        {
          "internalType": "string[]",
          "name": "myPlots",
          "type": "string[]"
        },
        {
          "components": [
            {
              "internalType": "string",
              "name": "plotId",
              "type": "string"
            },
            {
              "internalType": "string",
              "name": "dzongkhag",
              "type": "string"
            },
            {
              "internalType": "string",
              "name": "gewog",
              "type": "string"
            },
            {
              "internalType": "string",
              "name": "thram",
              "type": "string"
            },
            {
              "internalType": "string",
              "name": "ownerName",
              "type": "string"
            },
            {
              "internalType": "string",
              "name": "ownerCid",
              "type": "string"
            },
            {
              "internalType": "string",
              "name": "ownType",
              "type": "string"
            },
            {
              "internalType": "string",
              "name": "majorCategory",
              "type": "string"
            },
            {
              "internalType": "string",
              "name": "landType",
              "type": "string"
            },
            {
              "internalType": "string",
              "name": "plotClass",
              "type": "string"
            },
            {
              "internalType": "uint256",
              "name": "areaAc",
              "type": "uint256"
            },
            {
              "internalType": "uint256",
              "name": "allocatedTokens",
              "type": "uint256"
            },
            {
              "internalType": "address",
              "name": "wallet",
              "type": "address"
            },
            {
              "internalType": "bool",
              "name": "exists",
              "type": "bool"
            }
          ],
          "internalType": "struct GMCLandCompensation.LandPlotView[]",
          "name": "fullPlotDetails",
          "type": "tuple[]"
        }
      ],
      "stateMutability": "view",
      "type": "function"
    },
    {
      "inputs": [],
      "name": "name",
      "outputs": [
        {
          "internalType": "string",
          "name": "",
          "type": "string"
        }
      ],
      "stateMutability": "view",
      "type": "function"
    },
    {
      "inputs": [],
      "name": "owner",
      "outputs": [
        {
          "internalType": "address",
          "name": "",
          "type": "address"
        }
      ],
      "stateMutability": "view",
      "type": "function"
    },
    {
      "inputs": [
        {
          "internalType": "string",
          "name": "",
          "type": "string"
        }
      ],
      "name": "plots",
      "outputs": [
        {
          "internalType": "string",
          "name": "plotId",
          "type": "string"
        },
        {
          "internalType": "string",
          "name": "dzongkhag",
          "type": "string"
        },
        {
          "internalType": "string",
          "name": "gewog",
          "type": "string"
        },
        {
          "internalType": "string",
          "name": "thram",
          "type": "string"
        },
        {
          "internalType": "string",
          "name": "ownerName",
          "type": "string"
        },
        {
          "internalType": "string",
          "name": "ownerCid",
          "type": "string"
        },
        {
          "internalType": "string",
          "name": "ownType",
          "type": "string"
        },
        {
          "internalType": "string",
          "name": "majorCategory",
          "type": "string"
        },
        {
          "internalType": "string",
          "name": "landType",
          "type": "string"
        },
        {
          "internalType": "string",
          "name": "plotClass",
          "type": "string"
        },
        {
          "internalType": "uint256",
          "name": "areaAc",
          "type": "uint256"
        },
        {
          "internalType": "uint256",
          "name": "allocatedTokens",
          "type": "uint256"
        },
        {
          "internalType": "address",
          "name": "wallet",
          "type": "address"
        },
        {
          "internalType": "bool",
          "name": "exists",
          "type": "bool"
        }
      ],
      "stateMutability": "view",
      "type": "function"
    },
    {
      "inputs": [
        {
          "internalType": "string",
          "name": "plotId",
          "type": "string"
        },
        {
          "internalType": "string",
          "name": "dzongkhag",
          "type": "string"
        },
        {
          "internalType": "string",
          "name": "gewog",
          "type": "string"
        },
        {
          "internalType": "string",
          "name": "thram",
          "type": "string"
        },
        {
          "internalType": "string",
          "name": "ownerName",
          "type": "string"
        },
        {
          "internalType": "string",
          "name": "ownerCid",
          "type": "string"
        },
        {
          "internalType": "string",
          "name": "ownType",
          "type": "string"
        },
        {
          "internalType": "string",
          "name": "majorCategory",
          "type": "string"
        },
        {
          "internalType": "string",
          "name": "landType",
          "type": "string"
        },
        {
          "internalType": "string",
          "name": "plotClass",
          "type": "string"
        },
        {
          "internalType": "uint256",
          "name": "areaAcTimes1e4",
          "type": "uint256"
        },
        {
          "internalType": "address",
          "name": "wallet",
          "type": "address"
        },
        {
          "internalType": "uint256",
          "name": "initialTokenAmount",
          "type": "uint256"
        }
      ],
      "name": "registerLandPlot",
      "outputs": [],
      "stateMutability": "nonpayable",
      "type": "function"
    },
    {
      "inputs": [],
      "name": "renounceOwnership",
      "outputs": [],
      "stateMutability": "nonpayable",
      "type": "function"
    },
    {
      "inputs": [
        {
          "internalType": "uint256",
          "name": "",
          "type": "uint256"
        }
      ],
      "name": "sellOrders",
      "outputs": [
        {
          "internalType": "uint256",
          "name": "id",
          "type": "uint256"
        },
        {
          "internalType": "address",
          "name": "seller",
          "type": "address"
        },
        {
          "internalType": "uint256",
          "name": "amountTotal",
          "type": "uint256"
        },
        {
          "internalType": "uint256",
          "name": "amountRemaining",
          "type": "uint256"
        },
        {
          "internalType": "uint256",
          "name": "pricePerTokenWei",
          "type": "uint256"
        },
        {
          "internalType": "bool",
          "name": "active",
          "type": "bool"
        }
      ],
      "stateMutability": "view",
      "type": "function"
    },
    {
      "inputs": [],
      "name": "symbol",
      "outputs": [
        {
          "internalType": "string",
          "name": "",
          "type": "string"
        }
      ],
      "stateMutability": "view",
      "type": "function"
    },
    {
      "inputs": [
        {
          "internalType": "address",
          "name": "",
          "type": "address"
        }
      ],
      "name": "totalProceeds",
      "outputs": [
        {
          "internalType": "uint256",
          "name": "",
          "type": "uint256"
        }
      ],
      "stateMutability": "view",
      "type": "function"
    },
    {
      "inputs": [],
      "name": "totalSupply",
      "outputs": [
        {
          "internalType": "uint256",
          "name": "",
          "type": "uint256"
        }
      ],
      "stateMutability": "view",
      "type": "function"
    },
    {
      "inputs": [
        {
          "internalType": "address",
          "name": "to",
          "type": "address"
        },
        {
          "internalType": "uint256",
          "name": "value",
          "type": "uint256"
        }
      ],
      "name": "transfer",
      "outputs": [
        {
          "internalType": "bool",
          "name": "",
          "type": "bool"
        }
      ],
      "stateMutability": "nonpayable",
      "type": "function"
    },
    {
      "inputs": [
        {
          "internalType": "address",
          "name": "from",
          "type": "address"
        },
        {
          "internalType": "address",
          "name": "to",
          "type": "address"
        },
        {
          "internalType": "uint256",
          "name": "value",
          "type": "uint256"
        }
      ],
      "name": "transferFrom",
      "outputs": [
        {
          "internalType": "bool",
          "name": "",
          "type": "bool"
        }
      ],
      "stateMutability": "nonpayable",
      "type": "function"
    },
    {
      "inputs": [
        {
          "internalType": "address",
          "name": "newOwner",
          "type": "address"
        }
      ],
      "name": "transferOwnership",
      "outputs": [],
      "stateMutability": "nonpayable",
      "type": "function"
    },
    {
      "inputs": [
        {
          "internalType": "string",
          "name": "plotId",
          "type": "string"
        },
        {
          "internalType": "address",
          "name": "newWallet",
          "type": "address"
        }
      ],
      "name": "updatePlotWallet",
      "outputs": [],
      "stateMutability": "nonpayable",
      "type": "function"
    },
    {
      "inputs": [
        {
          "internalType": "address",
          "name": "",
          "type": "address"
        },
        {
          "internalType": "uint256",
          "name": "",
          "type": "uint256"
        }
      ],
      "name": "walletPlots",
      "outputs": [
        {
          "internalType": "string",
          "name": "",
          "type": "string"
        }
      ],
      "stateMutability": "view",
      "type": "function"
    },
    {
      "stateMutability": "payable",
      "type": "receive"
    }
  ],
  "bytecode": "0x6080604052346103ad576122746020813803918261001c816103b2565b9384928339810103126103ad57516001600160a01b038116908190036103ad5761004660406103b2565b90600e82526d23a6a1902630b732102a37b5b2b760911b602083015261006c60406103b2565b600581526411d350d31560da1b602082015282519091906001600160401b0381116102b657600354600181811c911680156103a3575b602082101461029657601f811161033e575b506020601f82116001146102d757819293946000926102cc575b50508160011b916000199060031b1c1916176003555b81516001600160401b0381116102b657600454600181811c911680156102ac575b602082101461029657601f8111610231575b50602092601f82116001146101cc57928192936000926101c1575b50508160011b916000199060031b1c1916176004555b80156101ab57600580546001600160a01b03198116831790915560405191906001600160a01b03167f8be0079c531659141344cd1fd0a4f28419497f9722a3daafe3b4186f6b6457e0600080a360016006556001600a55611e9c90816103d88239f35b631e4fbdf760e01b600052600060045260246000fd5b015190503880610132565b601f198216936004600052806000209160005b8681106102195750836001959610610200575b505050811b01600455610148565b015160001960f88460031b161c191690553880806101f2565b919260206001819286850151815501940192016101df565b60046000527f8a35acfbc15ff81a39ae7d344fd709f28e8600b4aa8c65c6b64bfe7fe36bd19b601f830160051c8101916020841061028c575b601f0160051c01905b8181106102805750610117565b60008155600101610273565b909150819061026a565b634e487b7160e01b600052602260045260246000fd5b90607f1690610105565b634e487b7160e01b600052604160045260246000fd5b0151905038806100ce565b601f198216906003600052806000209160005b8181106103265750958360019596971061030d575b505050811b016003556100e4565b015160001960f88460031b161c191690553880806102ff565b9192602060018192868b0151815501940192016102ea565b60036000527fc2575a0e9e593c00f959f8c92f12db2869c3395a3b0502d05e2516446f71f85b601f830160051c81019160208410610399575b601f0160051c01905b81811061038d57506100b4565b60008155600101610380565b9091508190610377565b90607f16906100a2565b600080fd5b6040519190601f01601f191682016001600160401b038111838210176102b65760405256fe6080604052600436101561001b575b361561001957600080fd5b005b60003560e01c806306dd04191461174e57806306fdde03146116a6578063095ea7b3146116205780630b200b55146115b4578063131ef4d01461129a57806318160ddd1461127c5780631a46e42a146111995780631df681021461101857806323b872dd14610f2b578063313ce56714610f0f5780634a8393f314610e9f5780634afb66d514610e65578063633f515e14610bfc57806370a0823114610bc2578063715018a614610b655780637daa10ce146107075780638da5cb5b146106de57806395d89b41146105f95780639b4dda1e14610517578063a9059cbb146104e6578063aa36fc9914610324578063b1b128fb14610240578063dd62ed3e146101ef578063e58306f9146101c25763f2fde38b0361000e57346101bd5760203660031901126101bd5761014c61180d565b610154611d0e565b6001600160a01b031680156101a757600580546001600160a01b0319811683179091556001600160a01b03167f8be0079c531659141344cd1fd0a4f28419497f9722a3daafe3b4186f6b6457e0600080a3005b631e4fbdf760e01b600052600060045260246000fd5b600080fd5b346101bd5760403660031901126101bd576100196101de61180d565b6101e6611d0e565b60243590611d37565b346101bd5760403660031901126101bd5761020861180d565b610210611823565b6001600160a01b039182166000908152600160209081526040808320949093168252928352819020549051908152f35b346101bd5760403660031901126101bd576004356001600160401b0381116101bd576102709036906004016119e5565b6102fd61027b611823565b610283611d0e565b6001600160a01b031691610298831515611a42565b600c60405160208184516102af8183858901611839565b81016007815203019020016102ca60ff825460a01c16611cd1565b836bffffffffffffffffffffffff60a01b8254161790558260005260086020526102f8816040600020611b8a565b611bbc565b7f3093e6ec25258b993bc59c90418df58ad94d5e9410052168e2d0265006d5ceb9600080a3005b346101bd5760203660031901126101bd576004356001600160401b0381116101bd576103549036906004016119e5565b604051818180935160208193019161036b92611839565b81016007815203602001902061038081611926565b61038c60018301611926565b9161039960028201611926565b6103a560038301611926565b916103b260048201611926565b6103be60058301611926565b6103ca60068401611926565b6103d660078501611926565b906103e360088601611926565b926103f060098701611926565b94600a87015498600b88015497600c0154986040519c8d9c8d6101c081526101c00161041b9161185c565b8d810360208f015261042c9161185c565b8c810360408e015261043d9161185c565b8b810360608d015261044e9161185c565b8a810360808c015261045f9161185c565b89810360a08b01526104709161185c565b88810360c08a01526104819161185c565b87810360e08901526104929161185c565b8681036101008801526104a49161185c565b8581036101208701526104b69161185c565b92610140850152610160840152600160a01b60019003811661018084015260a01c60ff1615156101a08301520390f35b346101bd5760403660031901126101bd5761050c61050261180d565b6024359033611dcd565b602060405160018152f35b346101bd5760603660031901126101bd576004356001600160401b0381116101bd576105479036906004016119e5565b61054f611823565b907f7da62a25bb1eb9239dcc4bf9704255725861fcc200fa9871ba147b2fafcb751a60206105ef60443593610582611d0e565b6001600160a01b038616956102f890869061059e891515611a42565b6105a9821515611c1b565b600b604051878187516105bf8183858c01611839565b810160078152030190206105dc60ff600c83015460a01c16611cd1565b016105e8838254611c69565b9055611d37565b92604051908152a3005b346101bd5760003660031901126101bd57604051600060045461061b816118af565b80845290600181169081156106ba575060011461065b575b6106578361064381850382611905565b60405191829160208352602083019061185c565b0390f35b600460009081527f8a35acfbc15ff81a39ae7d344fd709f28e8600b4aa8c65c6b64bfe7fe36bd19b939250905b8082106106a057509091508101602001610643610633565b919260018160209254838588010152019101909291610688565b60ff191660208086019190915291151560051b840190910191506106439050610633565b346101bd5760003660031901126101bd576005546040516001600160a01b039091168152602090f35b346101bd5760003660031901126101bd5733600090815260208181526040808320546009835281842054600890935292208054909161074582611ca6565b916107536040519384611905565b80835260208301809460005260206000206000915b838310610b48575050505081519261077f84611ca6565b9361078d6040519586611905565b80855261079c601f1991611ca6565b0160005b818110610aca57505060005b83518110156108ea57806107db60206107c760019488611cbd565b518160405193828580945193849201611839565b8101600781520301902060ff600a820154600b830154600c840154916108a2600960405196610809886118e9565b61081281611926565b885261081f8a8201611926565b602089015261083060028201611926565b604089015261084160038201611926565b606089015261085260048201611926565b608089015261086360058201611926565b60a089015261087460068201611926565b60c089015261088560078201611926565b60e089015261089660088201611926565b61010089015201611926565b610120860152610140850152610160840152848060a01b03811661018084015260a01c1615156101a08201526108d88288611cbd565b526108e38187611cbd565b50016107ac565b5090929193604051948594608086019286526020860152608060408601525180915260a084019060a08160051b86010192916000905b828210610a9957505050508281036060840152815180825260208201916020808360051b8301019401926000915b83831061095b5786860387f35b9193955091936020806109ae836101a080610a54610a40610a2c610a1a8f6109f66109e48f8f60019f8e610a08966109d2946109bf94601f19908503019052519e8f926101c0845191818152019061185c565b9101518f8e9081840391015261185c565b60408d01518c604081840391015261185c565b60608c01518b820360608d015261185c565b60808b01518a820360808c015261185c565b60a08a015189820360a08b015261185c565b60c089015188820360c08a015261185c565b60e088015187820360e089015261185c565b61010087015186820361010088015261185c565b61012086015185820361012087015261185c565b93610140810151610140850152610160810151610160850152878060a01b0361018082015116610180850152015115159101529701930193019092869594929361094e565b9193600191939596506020610ab98192609f198b8203018652885161185c565b960192019201869594939192610920565b602090604051610ad9816118e9565b606081526060838201526060604082015260608082015260606080820152606060a0820152606060c0820152606060e08201526060610100820152606061012082015260006101408201526000610160820152600061018082015260006101a0820152828289010152016107a0565b600160208192610b5785611926565b815201920192019190610768565b346101bd5760003660031901126101bd57610b7e611d0e565b600580546001600160a01b031981169091556000906001600160a01b03167f8be0079c531659141344cd1fd0a4f28419497f9722a3daafe3b4186f6b6457e08280a3005b346101bd5760203660031901126101bd576001600160a01b03610be361180d565b1660005260006020526020604060002054604051908152f35b610c0536611a2c565b90610c0e611dab565b80600052600b602052604060002060058101805491610c2f60ff8416611bdc565b841591610c3c8315611c1b565b6003820193845493848811610e205760048401549081890291898304141715610e0a57670de0b6b3a7640000900494853410610dce576001600095948695948695948994610c8b8d8998611c5c565b80915515610dc1575b5050610ca18a3330611dcd565b0180546001600160a01b031683526009602052604083208054610cc5908490611c69565b9055546001600160a01b03165af1610cdb611c76565b5015610d7c57610ceb8134611c5c565b80610d2a575b5060405192835260208301527f868d789fdb4bef729c9163c7ea9215ec181d41d023ca7fa8e3ab46b0db7bf4e660403393a36001600655005b600080808093335af1610d3b611c76565b5015610d475783610cf1565b60405162461bcd60e51b815260206004820152600d60248201526c1499599d5b990819985a5b1959609a1b6044820152606490fd5b60405162461bcd60e51b815260206004820152601860248201527f5061796d656e7420746f2073656c6c6572206661696c656400000000000000006044820152606490fd5b60ff191690558a80610c94565b60405162461bcd60e51b8152602060048201526014602482015273125b9cdd59999a58da595b9d081c185e5b595b9d60621b6044820152606490fd5b634e487b7160e01b600052601160045260246000fd5b60405162461bcd60e51b815260206004820152601a60248201527f4e6f7420656e6f75676820746f6b656e7320696e206f726465720000000000006044820152606490fd5b346101bd5760203660031901126101bd576001600160a01b03610e8661180d565b1660005260096020526020604060002054604051908152f35b346101bd5760203660031901126101bd57600435600052600b60205260c0604060002080549060018060a01b0360018201541690600281015460038201549060ff6005600485015494015416936040519586526020860152604085015260608401526080830152151560a0820152f35b346101bd5760003660031901126101bd57602060405160128152f35b346101bd5760603660031901126101bd57610f4461180d565b610f4c611823565b6001600160a01b0382166000818152600160209081526040808320338452909152902054909260443592916000198110610f8c575b5061050c9350611dcd565b838110610ffb578415610fe5573315610fcf5761050c946000526001602052604060002060018060a01b0333166000526020528360406000209103905584610f81565b634a1406b160e11b600052600060045260246000fd5b63e602df0560e01b600052600060045260246000fd5b8390637dc7a0d960e11b6000523360045260245260445260646000fd5b346101bd5761102636611a2c565b9061102f611dab565b61103a811515611c1b565b81156111605761104b813033611dcd565b600a54906000198214610e0a5760018201600a556040519260c08401938085106001600160401b0386111761114a576020946040528381526005858201913383526040810185815260608201868152608083019186835260a08401956001875289600052600b8b5260406000209451855560018060a01b03905116600185019060018060a01b03166bffffffffffffffffffffffff60a01b825416179055516002840155516003830155516004820155019051151560ff8019835416911617905560405191825283820152817f80a49be05481ef1a555cd6ea5845b05ffa157f18a6e61d3030f9bc5d25f3294a60403393a36001600655604051908152f35b634e487b7160e01b600052604160045260246000fd5b60405162461bcd60e51b815260206004820152601160248201527005072696365206d757374206265203e203607c1b6044820152606490fd5b346101bd5760203660031901126101bd576004356111b5611dab565b80600052600b60205260406000209060058201918254926111d860ff8516611bdc565b60018201546001600160a01b03163303611246576003600092019081549460ff191690555581611236575b6040519182527fb3b66e9278cc82d38e08c6ea63c8a306e6e4a14cfde056b77230c8b321238edd60203393a36001600655005b611241823330611dcd565b611203565b60405162461bcd60e51b815260206004820152600e60248201526d2737ba103cb7bab91037b93232b960911b6044820152606490fd5b346101bd5760003660031901126101bd576020600254604051908152f35b346101bd576101a03660031901126101bd576004356001600160401b0381116101bd576112cb9036906004016119e5565b6024356001600160401b0381116101bd576112ea9036906004016119e5565b6044356001600160401b0381116101bd576113099036906004016119e5565b916064356001600160401b0381116101bd576113299036906004016119e5565b916084356001600160401b0381116101bd576113499036906004016119e5565b9360a4356001600160401b0381116101bd576113699036906004016119e5565b9060c4356001600160401b0381116101bd576113899036906004016119e5565b60e4356001600160401b0381116101bd576113a89036906004016119e5565b610104356001600160401b0381116101bd576113c89036906004016119e5565b90610124356001600160401b0381116101bd576113e99036906004016119e5565b92610164359560018060a01b0387169a8b88036101bd57610184359a61140d611d0e565b6040518b5160208d01999190819061142681838e611839565b810160078152036020019020600c015460a01c60ff16611579578c9a8c998f151561145090611a42565b6040518080928d51809261146392611839565b8101600781520360200190209c61147a908e611a7f565b6114879060018e01611a7f565b6114949060028d01611a7f565b6114a19060038c01611a7f565b6114ae9060048b01611a7f565b6114bb9060058a01611a7f565b6114c89060068901611a7f565b6114d59060078801611a7f565b6114e29060088701611a7f565b6114ef9060098601611a7f565b61014435600a850155600c8401805460ff60a01b1988166001600160a81b031990911617600160a01b1790557f2d0b8c87f9bb4217d59b66dda06c23876e0567e3b3b614f0b98e1444d7d91834936020936105ef9381611563575b50505085600052600883526102f8816040600020611b8a565b81600b611571940155611d37565b86858161154a565b60405162461bcd60e51b8152602060048201526013602482015272506c6f7420616c72656164792065786973747360681b6044820152606490fd5b346101bd5760403660031901126101bd576115cd61180d565b6001600160a01b031660009081526008602052604090208054602435908110156101bd576115fa91611881565b61160a5761064361065791611926565b634e487b7160e01b600052600060045260246000fd5b346101bd5760403660031901126101bd5761163961180d565b602435903315610fe5576001600160a01b0316908115610fcf57336000526001602052604060002082600052602052806040600020556040519081527f8c5be1e5ebec7d5bd14f71427d1e84f3dd0314c0f7b2291e5b200ac8c7c3b92560203392a3602060405160018152f35b346101bd5760003660031901126101bd5760405160006003546116c8816118af565b80845290600181169081156106ba57506001146116ef576106578361064381850382611905565b600360009081527fc2575a0e9e593c00f959f8c92f12db2869c3395a3b0502d05e2516446f71f85b939250905b80821061173457509091508101602001610643610633565b91926001816020925483858801015201910190929161171c565b346101bd5760403660031901126101bd5761176761180d565b60243590611773611d0e565b6001600160a01b03169081156117f7576000908282528160205260408220548181106117df5760208285937fddf252ad1be2c89b69c2b068fc378daa952ba7f163c4a11628f55a4df523b3ef93869787528684520360408620558060025403600255604051908152a380f35b60649363391434e360e21b8452600452602452604452fd5b634b637e8f60e11b600052600060045260246000fd5b600435906001600160a01b03821682036101bd57565b602435906001600160a01b03821682036101bd57565b60005b83811061184c5750506000910152565b818101518382015260200161183c565b9060209161187581518092818552858086019101611839565b601f01601f1916010190565b80548210156118995760005260206000200190600090565b634e487b7160e01b600052603260045260246000fd5b90600182811c921680156118df575b60208310146118c957565b634e487b7160e01b600052602260045260246000fd5b91607f16916118be565b6101c081019081106001600160401b0382111761114a57604052565b90601f801991011681019081106001600160401b0382111761114a57604052565b906040519182600082549261193a846118af565b80845293600181169081156119a85750600114611961575b5061195f92500383611905565b565b90506000929192526020600020906000915b81831061198c57505090602061195f9282010138611952565b6020919350806001915483858901015201910190918492611973565b90506020925061195f94915060ff191682840152151560051b82010138611952565b6001600160401b03811161114a57601f01601f191660200190565b81601f820112156101bd578035906119fc826119ca565b92611a0a6040519485611905565b828452602083830101116101bd57816000926020809301838601378301015290565b60409060031901126101bd576004359060243590565b15611a4957565b60405162461bcd60e51b815260206004820152600e60248201526d125b9d985b1a59081dd85b1b195d60921b6044820152606490fd5b91909182516001600160401b03811161114a57611a9c82546118af565b601f8111611b42575b506020601f8211600114611ae05781929394600092611ad5575b50508160011b916000199060031b1c1916179055565b015190503880611abf565b601f1982169083600052806000209160005b818110611b2a57509583600195969710611b11575b505050811b019055565b015160001960f88460031b161c19169055388080611b07565b9192602060018192868b015181550194019201611af2565b826000526020600020601f830160051c81019160208410611b80575b601f0160051c01905b818110611b745750611aa5565b60008155600101611b67565b9091508190611b5e565b80546801000000000000000081101561114a57611bac91600182018155611881565b91909161160a5761195f91611a7f565b611bd490602060405192828480945193849201611839565b810103902090565b15611be357565b60405162461bcd60e51b815260206004820152601060248201526f4f72646572206e6f742061637469766560801b6044820152606490fd5b15611c2257565b60405162461bcd60e51b81526020600482015260126024820152710416d6f756e74206d757374206265203e20360741b6044820152606490fd5b91908203918211610e0a57565b91908201809211610e0a57565b3d15611ca1573d90611c87826119ca565b91611c956040519384611905565b82523d6000602084013e565b606090565b6001600160401b03811161114a5760051b60200190565b80518210156118995760209160051b010190565b15611cd857565b60405162461bcd60e51b815260206004820152600e60248201526d141b1bdd081b9bdd08199bdd5b9960921b6044820152606490fd5b6005546001600160a01b03163303611d2257565b63118cdaa760e01b6000523360045260246000fd5b6001600160a01b0316908115611d9557611d5381600254611c69565b6002557fddf252ad1be2c89b69c2b068fc378daa952ba7f163c4a11628f55a4df523b3ef602060009284845283825260408420818154019055604051908152a3565b63ec442f0560e01b600052600060045260246000fd5b600260065414611dbc576002600655565b633ee5aeb560e01b60005260046000fd5b6001600160a01b03169081156117f7576001600160a01b0316918215611d95576000828152806020526040812054828110611e4c5791604082827fddf252ad1be2c89b69c2b068fc378daa952ba7f163c4a11628f55a4df523b3ef958760209652828652038282205586815280845220818154019055604051908152a3565b916064928463391434e360e21b8452600452602452604452fdfea26469706673582212205086ed76f4b00a8a83b83affbb374c89b7621541ef807023d752dc0f5b44bbad64736f6c634300081c0033",
  "linkReferences": {},
  "deployedLinkReferences": {}
}