{
  "_format": "hh-sol-artifact-1",
  "contractName": "GMCLandCompensation",
  "sourceName": "contracts/GMCLandCompensation.sol",
  "abi": [
    {
      "inputs": [
        {
          "internalType": "address",
          "name": "initialOwner",
          "type": "address"
        }
      ],
      "stateMutability": "nonpayable",
      "type": "constructor"
    },
    {
      "inputs": [
        {
          "internalType": "address",
          "name": "spender",
          "type": "address"
        },
        {
          "internalType": "uint256",
          "name": "allowance",
          "type": "uint256"
        },
        {
          "internalType": "uint256",
          "name": "needed",
          "type": "uint256"
        }
      ],
      "name": "ERC20InsufficientAllowance",
      "type": "error"
    },
    {
      "inputs": [
        {
          "internalType": "address",
          "name": "sender",
          "type": "address"
        },
        {
          "internalType": "uint256",
          "name": "balance",
          "type": "uint256"
        },
        {
          "internalType": "uint256",
          "name": "needed",
          "type": "uint256"
        }
      ],
      "name": "ERC20InsufficientBalance",
      "type": "error"
    },
    {
      "inputs": [
        {
          "internalType": "address",
          "name": "approver",
          "type": "address"
        }
      ],
      "name": "ERC20InvalidApprover",
      "type": "error"
    },
    {
      "inputs": [
        {
          "internalType": "address",
          "name": "receiver",
          "type": "address"
        }
      ],
      "name": "ERC20InvalidReceiver",
      "type": "error"
    },
    {
      "inputs": [
        {
          "internalType": "address",
          "name": "sender",
          "type": "address"
        }
      ],
      "name": "ERC20InvalidSender",
      "type": "error"
    },
    {
      "inputs": [
        {
          "internalType": "address",
          "name": "spender",
          "type": "address"
        }
      ],
      "name": "ERC20InvalidSpender",
      "type": "error"
    },
    {
      "inputs": [
        {
          "internalType": "address",
          "name": "owner",
          "type": "address"
        }
      ],
      "name": "OwnableInvalidOwner",
      "type": "error"
    },
    {
      "inputs": [
        {
          "internalType": "address",
          "name": "account",
          "type": "address"
        }
      ],
      "name": "OwnableUnauthorizedAccount",
      "type": "error"
    },
    {
      "inputs": [],
      "name": "ReentrancyGuardReentrantCall",
      "type": "error"
    },
    {
      "anonymous": false,
      "inputs": [
        {
          "indexed": true,
          "internalType": "address",
          "name": "owner",
          "type": "address"
        },
        {
          "indexed": true,
          "internalType": "address",
          "name": "spender",
          "type": "address"
        },
        {
          "indexed": false,
          "internalType": "uint256",
          "name": "value",
          "type": "uint256"
        }
      ],
      "name": "Approval",
      "type": "event"
    },
    {
      "anonymous": false,
      "inputs": [
        {
          "indexed": true,
          "internalType": "string",
          "name": "plotId",
          "type": "string"
        },
        {
          "indexed": true,
          "internalType": "address",
          "name": "wallet",
          "type": "address"
        },
        {
          "indexed": false,
          "internalType": "uint256",
          "name": "landValue",
          "type": "uint256"
        },
        {
          "indexed": false,
          "internalType": "uint256",
          "name": "tokenAmount",
          "type": "uint256"
        }
      ],
      "name": "LandPlotRegistered",
      "type": "event"
    },
    {
      "anonymous": false,
      "inputs": [
        {
          "indexed": true,
          "internalType": "string",
          "name": "plotId",
          "type": "string"
        },
        {
          "indexed": true,
          "internalType": "address",
          "name": "newWallet",
          "type": "address"
        }
      ],
      "name": "LandPlotUpdated",
      "type": "event"
    },
    {
      "anonymous": false,
      "inputs": [
        {
          "indexed": true,
          "internalType": "string",
          "name": "plotId",
          "type": "string"
        },
        {
          "indexed": true,
          "internalType": "address",
          "name": "currentPlotWallet",
          "type": "address"
        },
        {
          "indexed": true,
          "internalType": "address",
          "name": "nominee",
          "type": "address"
        }
      ],
      "name": "NomineeSet",
      "type": "event"
    },
    {
      "anonymous": false,
      "inputs": [
        {
          "indexed": true,
          "internalType": "string",
          "name": "plotId",
          "type": "string"
        },
        {
          "indexed": true,
          "internalType": "address",
          "name": "admin",
          "type": "address"
        },
        {
          "indexed": true,
          "internalType": "address",
          "name": "nominee",
          "type": "address"
        }
      ],
      "name": "OwnerDeclaredDeceased",
      "type": "event"
    },
    {
      "anonymous": false,
      "inputs": [
        {
          "indexed": true,
          "internalType": "address",
          "name": "previousOwner",
          "type": "address"
        },
        {
          "indexed": true,
          "internalType": "address",
          "name": "newOwner",
          "type": "address"
        }
      ],
      "name": "OwnershipTransferred",
      "type": "event"
    },
    {
      "anonymous": false,
      "inputs": [
        {
          "indexed": true,
          "internalType": "string",
          "name": "plotId",
          "type": "string"
        },
        {
          "indexed": true,
          "internalType": "address",
          "name": "nominee",
          "type": "address"
        },
        {
          "indexed": true,
          "internalType": "address",
          "name": "oldWallet",
          "type": "address"
        },
        {
          "indexed": false,
          "internalType": "address",
          "name": "newWallet",
          "type": "address"
        }
      ],
      "name": "PlotClaimedByNominee",
      "type": "event"
    },
    {
      "anonymous": false,
      "inputs": [
        {
          "indexed": true,
          "internalType": "uint256",
          "name": "orderId",
          "type": "uint256"
        },
        {
          "indexed": true,
          "internalType": "address",
          "name": "seller",
          "type": "address"
        },
        {
          "indexed": false,
          "internalType": "uint256",
          "name": "amountReturned",
          "type": "uint256"
        }
      ],
      "name": "SellOrderCancelled",
      "type": "event"
    },
    {
      "anonymous": false,
      "inputs": [
        {
          "indexed": true,
          "internalType": "uint256",
          "name": "orderId",
          "type": "uint256"
        },
        {
          "indexed": true,
          "internalType": "address",
          "name": "seller",
          "type": "address"
        },
        {
          "indexed": false,
          "internalType": "uint256",
          "name": "amount",
          "type": "uint256"
        },
        {
          "indexed": false,
          "internalType": "uint256",
          "name": "pricePerTokenWei",
          "type": "uint256"
        }
      ],
      "name": "SellOrderCreated",
      "type": "event"
    },
    {
      "anonymous": false,
      "inputs": [
        {
          "indexed": true,
          "internalType": "uint256",
          "name": "orderId",
          "type": "uint256"
        },
        {
          "indexed": true,
          "internalType": "address",
          "name": "seller",
          "type": "address"
        },
        {
          "indexed": true,
          "internalType": "string",
          "name": "plotId",
          "type": "string"
        },
        {
          "indexed": false,
          "internalType": "uint256",
          "name": "amount",
          "type": "uint256"
        },
        {
          "indexed": false,
          "internalType": "uint256",
          "name": "pricePerTokenWei",
          "type": "uint256"
        }
      ],
      "name": "SellOrderCreatedWithPlot",
      "type": "event"
    },
    {
      "anonymous": false,
      "inputs": [
        {
          "indexed": true,
          "internalType": "uint256",
          "name": "orderId",
          "type": "uint256"
        },
        {
          "indexed": true,
          "internalType": "address",
          "name": "buyer",
          "type": "address"
        },
        {
          "indexed": false,
          "internalType": "uint256",
          "name": "amount",
          "type": "uint256"
        },
        {
          "indexed": false,
          "internalType": "uint256",
          "name": "totalPaidWei",
          "type": "uint256"
        }
      ],
      "name": "SellOrderFilled",
      "type": "event"
    },
    {
      "anonymous": false,
      "inputs": [
        {
          "indexed": true,
          "internalType": "string",
          "name": "plotId",
          "type": "string"
        },
        {
          "indexed": true,
          "internalType": "address",
          "name": "to",
          "type": "address"
        },
        {
          "indexed": false,
          "internalType": "uint256",
          "name": "amount",
          "type": "uint256"
        }
      ],
      "name": "TokensAllocatedFromPlot",
      "type": "event"
    },
    {
      "anonymous": false,
      "inputs": [
        {
          "indexed": false,
          "internalType": "uint256",
          "name": "oldRate",
          "type": "uint256"
        },
        {
          "indexed": false,
          "internalType": "uint256",
          "name": "newRate",
          "type": "uint256"
        }
      ],
      "name": "TokensPerUnitUpdated",
      "type": "event"
    },
    {
      "anonymous": false,
      "inputs": [
        {
          "indexed": true,
          "internalType": "address",
          "name": "from",
          "type": "address"
        },
        {
          "indexed": true,
          "internalType": "address",
          "name": "to",
          "type": "address"
        },
        {
          "indexed": false,
          "internalType": "uint256",
          "name": "value",
          "type": "uint256"
        }
      ],
      "name": "Transfer",
      "type": "event"
    },
    {
      "inputs": [
        {
          "internalType": "address",
          "name": "from",
          "type": "address"
        },
        {
          "internalType": "uint256",
          "name": "amount",
          "type": "uint256"
        }
      ],
      "name": "adminBurn",
      "outputs": [],
      "stateMutability": "nonpayable",
      "type": "function"
    },
    {
      "inputs": [
        {
          "internalType": "address",
          "name": "to",
          "type": "address"
        },
        {
          "internalType": "uint256",
          "name": "amount",
          "type": "uint256"
        }
      ],
      "name": "adminMint",
      "outputs": [],
      "stateMutability": "nonpayable",
      "type": "function"
    },
    {
      "inputs": [
        {
          "internalType": "uint256",
          "name": "",
          "type": "uint256"
        }
      ],
      "name": "allPlotIds",
      "outputs": [
        {
          "internalType": "string",
          "name": "",
          "type": "string"
        }
      ],
      "stateMutability": "view",
      "type": "function"
    },
    {
      "inputs": [
        {
          "internalType": "string",
          "name": "plotId",
          "type": "string"
        },
        {
          "internalType": "address",
          "name": "toWallet",
          "type": "address"
        },
        {
          "internalType": "uint256",
          "name": "amount",
          "type": "uint256"
        }
      ],
      "name": "allocateTokensFromPlot",
      "outputs": [],
      "stateMutability": "nonpayable",
      "type": "function"
    },
    {
      "inputs": [
        {
          "internalType": "address",
          "name": "owner",
          "type": "address"
        },
        {
          "internalType": "address",
          "name": "spender",
          "type": "address"
        }
      ],
      "name": "allowance",
      "outputs": [
        {
          "internalType": "uint256",
          "name": "",
          "type": "uint256"
        }
      ],
      "stateMutability": "view",
      "type": "function"
    },
    {
      "inputs": [
        {
          "internalType": "address",
          "name": "spender",
          "type": "address"
        },
        {
          "internalType": "uint256",
          "name": "value",
          "type": "uint256"
        }
      ],
      "name": "approve",
      "outputs": [
        {
          "internalType": "bool",
          "name": "",
          "type": "bool"
        }
      ],
      "stateMutability": "nonpayable",
      "type": "function"
    },
    {
      "inputs": [
        {
          "internalType": "address",
          "name": "account",
          "type": "address"
        }
      ],
      "name": "balanceOf",
      "outputs": [
        {
          "internalType": "uint256",
          "name": "",
          "type": "uint256"
        }
      ],
      "stateMutability": "view",
      "type": "function"
    },
    {
      "inputs": [
        {
          "internalType": "uint256",
          "name": "orderId",
          "type": "uint256"
        },
        {
          "internalType": "uint256",
          "name": "amountToBuy",
          "type": "uint256"
        }
      ],
      "name": "buyFromOrder",
      "outputs": [],
      "stateMutability": "payable",
      "type": "function"
    },
    {
      "inputs": [
        {
          "internalType": "uint256",
          "name": "orderId",
          "type": "uint256"
        }
      ],
      "name": "cancelSellOrder",
      "outputs": [],
      "stateMutability": "nonpayable",
      "type": "function"
    },
    {
      "inputs": [
        {
          "internalType": "string",
          "name": "plotId",
          "type": "string"
        },
        {
          "internalType": "address",
          "name": "newWallet",
          "type": "address"
        }
      ],
      "name": "claimPlotAsNominee",
      "outputs": [],
      "stateMutability": "nonpayable",
      "type": "function"
    },
    {
      "inputs": [
        {
          "internalType": "string",
          "name": "plotId",
          "type": "string"
        },
        {
          "internalType": "address",
          "name": "newWallet",
          "type": "address"
        }
      ],
      "name": "claimPlotAsNomineeWithTokens",
      "outputs": [],
      "stateMutability": "nonpayable",
      "type": "function"
    },
    {
      "inputs": [
        {
          "internalType": "string",
          "name": "plotId",
          "type": "string"
        }
      ],
      "name": "clearNomineeForPlot",
      "outputs": [],
      "stateMutability": "nonpayable",
      "type": "function"
    },
    {
      "inputs": [
        {
          "internalType": "uint256",
          "name": "amount",
          "type": "uint256"
        },
        {
          "internalType": "uint256",
          "name": "pricePerTokenWei",
          "type": "uint256"
        }
      ],
      "name": "createSellOrder",
      "outputs": [
        {
          "internalType": "uint256",
          "name": "orderId",
          "type": "uint256"
        }
      ],
      "stateMutability": "nonpayable",
      "type": "function"
    },
    {
      "inputs": [
        {
          "internalType": "string",
          "name": "plotId",
          "type": "string"
        },
        {
          "internalType": "uint256",
          "name": "amount",
          "type": "uint256"
        },
        {
          "internalType": "uint256",
          "name": "pricePerTokenWei",
          "type": "uint256"
        }
      ],
      "name": "createSellOrderForPlot",
      "outputs": [
        {
          "internalType": "uint256",
          "name": "orderId",
          "type": "uint256"
        }
      ],
      "stateMutability": "nonpayable",
      "type": "function"
    },
    {
      "inputs": [],
      "name": "decimals",
      "outputs": [
        {
          "internalType": "uint8",
          "name": "",
          "type": "uint8"
        }
      ],
      "stateMutability": "view",
      "type": "function"
    },
    {
      "inputs": [
        {
          "internalType": "string",
          "name": "plotId",
          "type": "string"
        }
      ],
      "name": "declarePlotOwnerDeceased",
      "outputs": [],
      "stateMutability": "nonpayable",
      "type": "function"
    },
    {
      "inputs": [],
      "name": "getAllPlotIds",
      "outputs": [
        {
          "internalType": "string[]",
          "name": "",
          "type": "string[]"
        }
      ],
      "stateMutability": "view",
      "type": "function"
    },
    {
      "inputs": [],
      "name": "getAllPlotsForAdmin",
      "outputs": [
        {
          "components": [
            {
              "internalType": "string",
              "name": "plotId",
              "type": "string"
            },
            {
              "internalType": "string",
              "name": "dzongkhag",
              "type": "string"
            },
            {
              "internalType": "string",
              "name": "gewog",
              "type": "string"
            },
            {
              "internalType": "string",
              "name": "thram",
              "type": "string"
            },
            {
              "internalType": "string",
              "name": "ownerName",
              "type": "string"
            },
            {
              "internalType": "string",
              "name": "ownerCid",
              "type": "string"
            },
            {
              "internalType": "string",
              "name": "ownType",
              "type": "string"
            },
            {
              "internalType": "string",
              "name": "majorCategory",
              "type": "string"
            },
            {
              "internalType": "string",
              "name": "landType",
              "type": "string"
            },
            {
              "internalType": "string",
              "name": "plotClass",
              "type": "string"
            },
            {
              "internalType": "uint256",
              "name": "areaAc",
              "type": "uint256"
            },
            {
              "internalType": "uint256",
              "name": "landValue",
              "type": "uint256"
            },
            {
              "internalType": "uint256",
              "name": "allocatedTokens",
              "type": "uint256"
            },
            {
              "internalType": "uint256",
              "name": "myTokensFromThisPlot",
              "type": "uint256"
            },
            {
              "internalType": "address",
              "name": "wallet",
              "type": "address"
            },
            {
              "internalType": "bool",
              "name": "exists",
              "type": "bool"
            }
          ],
          "internalType": "struct GMCLandCompensation.LandPlotView[]",
          "name": "",
          "type": "tuple[]"
        }
      ],
      "stateMutability": "view",
      "type": "function"
    },
    {
      "inputs": [],
      "name": "getMyInfo",
      "outputs": [
        {
          "internalType": "uint256",
          "name": "tokenBalance",
          "type": "uint256"
        },
        {
          "internalType": "uint256",
          "name": "totalEarned",
          "type": "uint256"
        },
        {
          "internalType": "uint256",
          "name": "totalTokensBought",
          "type": "uint256"
        },
        {
          "internalType": "uint256",
          "name": "totalTokensSold",
          "type": "uint256"
        },
        {
          "internalType": "string[]",
          "name": "myPlots",
          "type": "string[]"
        },
        {
          "components": [
            {
              "internalType": "string",
              "name": "plotId",
              "type": "string"
            },
            {
              "internalType": "string",
              "name": "dzongkhag",
              "type": "string"
            },
            {
              "internalType": "string",
              "name": "gewog",
              "type": "string"
            },
            {
              "internalType": "string",
              "name": "thram",
              "type": "string"
            },
            {
              "internalType": "string",
              "name": "ownerName",
              "type": "string"
            },
            {
              "internalType": "string",
              "name": "ownerCid",
              "type": "string"
            },
            {
              "internalType": "string",
              "name": "ownType",
              "type": "string"
            },
            {
              "internalType": "string",
              "name": "majorCategory",
              "type": "string"
            },
            {
              "internalType": "string",
              "name": "landType",
              "type": "string"
            },
            {
              "internalType": "string",
              "name": "plotClass",
              "type": "string"
            },
            {
              "internalType": "uint256",
              "name": "areaAc",
              "type": "uint256"
            },
            {
              "internalType": "uint256",
              "name": "landValue",
              "type": "uint256"
            },
            {
              "internalType": "uint256",
              "name": "allocatedTokens",
              "type": "uint256"
            },
            {
              "internalType": "uint256",
              "name": "myTokensFromThisPlot",
              "type": "uint256"
            },
            {
              "internalType": "address",
              "name": "wallet",
              "type": "address"
            },
            {
              "internalType": "bool",
              "name": "exists",
              "type": "bool"
            }
          ],
          "internalType": "struct GMCLandCompensation.LandPlotView[]",
          "name": "fullPlotDetails",
          "type": "tuple[]"
        }
      ],
      "stateMutability": "view",
      "type": "function"
    },
    {
      "inputs": [],
      "name": "getPlotCount",
      "outputs": [
        {
          "internalType": "uint256",
          "name": "",
          "type": "uint256"
        }
      ],
      "stateMutability": "view",
      "type": "function"
    },
    {
      "inputs": [
        {
          "internalType": "uint256",
          "name": "index",
          "type": "uint256"
        }
      ],
      "name": "getPlotIdAt",
      "outputs": [
        {
          "internalType": "string",
          "name": "",
          "type": "string"
        }
      ],
      "stateMutability": "view",
      "type": "function"
    },
    {
      "inputs": [
        {
          "internalType": "address",
          "name": "user",
          "type": "address"
        }
      ],
      "name": "getUserPlotBreakdown",
      "outputs": [
        {
          "internalType": "uint256",
          "name": "tokenBalance",
          "type": "uint256"
        },
        {
          "internalType": "uint256",
          "name": "totalEarned",
          "type": "uint256"
        },
        {
          "internalType": "uint256",
          "name": "totalTokensBought",
          "type": "uint256"
        },
        {
          "internalType": "uint256",
          "name": "totalTokensSold",
          "type": "uint256"
        },
        {
          "internalType": "string[]",
          "name": "plotIds",
          "type": "string[]"
        },
        {
          "components": [
            {
              "internalType": "string",
              "name": "plotId",
              "type": "string"
            },
            {
              "internalType": "string",
              "name": "dzongkhag",
              "type": "string"
            },
            {
              "internalType": "string",
              "name": "gewog",
              "type": "string"
            },
            {
              "internalType": "string",
              "name": "thram",
              "type": "string"
            },
            {
              "internalType": "string",
              "name": "ownerName",
              "type": "string"
            },
            {
              "internalType": "string",
              "name": "ownerCid",
              "type": "string"
            },
            {
              "internalType": "string",
              "name": "ownType",
              "type": "string"
            },
            {
              "internalType": "string",
              "name": "majorCategory",
              "type": "string"
            },
            {
              "internalType": "string",
              "name": "landType",
              "type": "string"
            },
            {
              "internalType": "string",
              "name": "plotClass",
              "type": "string"
            },
            {
              "internalType": "uint256",
              "name": "areaAc",
              "type": "uint256"
            },
            {
              "internalType": "uint256",
              "name": "landValue",
              "type": "uint256"
            },
            {
              "internalType": "uint256",
              "name": "allocatedTokens",
              "type": "uint256"
            },
            {
              "internalType": "uint256",
              "name": "myTokensFromThisPlot",
              "type": "uint256"
            },
            {
              "internalType": "address",
              "name": "wallet",
              "type": "address"
            },
            {
              "internalType": "bool",
              "name": "exists",
              "type": "bool"
            }
          ],
          "internalType": "struct GMCLandCompensation.LandPlotView[]",
          "name": "plotDetails",
          "type": "tuple[]"
        }
      ],
      "stateMutability": "view",
      "type": "function"
    },
    {
      "inputs": [
        {
          "internalType": "address",
          "name": "wallet",
          "type": "address"
        }
      ],
      "name": "getWalletPlots",
      "outputs": [
        {
          "internalType": "string[]",
          "name": "",
          "type": "string[]"
        }
      ],
      "stateMutability": "view",
      "type": "function"
    },
    {
      "inputs": [
        {
          "internalType": "string",
          "name": "",
          "type": "string"
        }
      ],
      "name": "inheritancePlans",
      "outputs": [
        {
          "internalType": "address",
          "name": "nominee",
          "type": "address"
        },
        {
          "internalType": "enum GMCLandCompensation.InheritanceStatus",
          "name": "status",
          "type": "uint8"
        },
        {
          "internalType": "uint256",
          "name": "activatedAt",
          "type": "uint256"
        },
        {
          "internalType": "uint256",
          "name": "deceasedAt",
          "type": "uint256"
        },
        {
          "internalType": "uint256",
          "name": "claimedAt",
          "type": "uint256"
        }
      ],
      "stateMutability": "view",
      "type": "function"
    },
    {
      "inputs": [
        {
          "internalType": "string",
          "name": "plotId",
          "type": "string"
        }
      ],
      "name": "isPlotIndexed",
      "outputs": [
        {
          "internalType": "bool",
          "name": "",
          "type": "bool"
        }
      ],
      "stateMutability": "view",
      "type": "function"
    },
    {
      "inputs": [],
      "name": "name",
      "outputs": [
        {
          "internalType": "string",
          "name": "",
          "type": "string"
        }
      ],
      "stateMutability": "view",
      "type": "function"
    },
    {
      "inputs": [
        {
          "internalType": "uint256",
          "name": "",
          "type": "uint256"
        }
      ],
      "name": "orderHasPlot",
      "outputs": [
        {
          "internalType": "bool",
          "name": "",
          "type": "bool"
        }
      ],
      "stateMutability": "view",
      "type": "function"
    },
    {
      "inputs": [
        {
          "internalType": "uint256",
          "name": "",
          "type": "uint256"
        }
      ],
      "name": "orderPlotId",
      "outputs": [
        {
          "internalType": "string",
          "name": "",
          "type": "string"
        }
      ],
      "stateMutability": "view",
      "type": "function"
    },
    {
      "inputs": [],
      "name": "owner",
      "outputs": [
        {
          "internalType": "address",
          "name": "",
          "type": "address"
        }
      ],
      "stateMutability": "view",
      "type": "function"
    },
    {
      "inputs": [
        {
          "internalType": "string",
          "name": "",
          "type": "string"
        }
      ],
      "name": "plots",
      "outputs": [
        {
          "internalType": "string",
          "name": "plotId",
          "type": "string"
        },
        {
          "internalType": "string",
          "name": "dzongkhag",
          "type": "string"
        },
        {
          "internalType": "string",
          "name": "gewog",
          "type": "string"
        },
        {
          "internalType": "string",
          "name": "thram",
          "type": "string"
        },
        {
          "internalType": "string",
          "name": "ownerName",
          "type": "string"
        },
        {
          "internalType": "string",
          "name": "ownerCid",
          "type": "string"
        },
        {
          "internalType": "string",
          "name": "ownType",
          "type": "string"
        },
        {
          "internalType": "string",
          "name": "majorCategory",
          "type": "string"
        },
        {
          "internalType": "string",
          "name": "landType",
          "type": "string"
        },
        {
          "internalType": "string",
          "name": "plotClass",
          "type": "string"
        },
        {
          "internalType": "uint256",
          "name": "areaAc",
          "type": "uint256"
        },
        {
          "internalType": "uint256",
          "name": "landValue",
          "type": "uint256"
        },
        {
          "internalType": "uint256",
          "name": "allocatedTokens",
          "type": "uint256"
        },
        {
          "internalType": "address",
          "name": "wallet",
          "type": "address"
        },
        {
          "internalType": "bool",
          "name": "exists",
          "type": "bool"
        }
      ],
      "stateMutability": "view",
      "type": "function"
    },
    {
      "inputs": [
        {
          "internalType": "string",
          "name": "plotId",
          "type": "string"
        },
        {
          "internalType": "string",
          "name": "dzongkhag",
          "type": "string"
        },
        {
          "internalType": "string",
          "name": "gewog",
          "type": "string"
        },
        {
          "internalType": "string",
          "name": "thram",
          "type": "string"
        },
        {
          "internalType": "string",
          "name": "ownerName",
          "type": "string"
        },
        {
          "internalType": "string",
          "name": "ownerCid",
          "type": "string"
        },
        {
          "internalType": "string",
          "name": "ownType",
          "type": "string"
        },
        {
          "internalType": "string",
          "name": "majorCategory",
          "type": "string"
        },
        {
          "internalType": "string",
          "name": "landType",
          "type": "string"
        },
        {
          "internalType": "string",
          "name": "plotClass",
          "type": "string"
        },
        {
          "internalType": "uint256",
          "name": "areaAcTimes1e4",
          "type": "uint256"
        },
        {
          "internalType": "uint256",
          "name": "landValue",
          "type": "uint256"
        },
        {
          "internalType": "address",
          "name": "wallet",
          "type": "address"
        }
      ],
      "name": "registerLandPlot",
      "outputs": [],
      "stateMutability": "nonpayable",
      "type": "function"
    },
    {
      "inputs": [],
      "name": "renounceOwnership",
      "outputs": [],
      "stateMutability": "nonpayable",
      "type": "function"
    },
    {
      "inputs": [
        {
          "internalType": "uint256",
          "name": "",
          "type": "uint256"
        }
      ],
      "name": "sellOrders",
      "outputs": [
        {
          "internalType": "uint256",
          "name": "id",
          "type": "uint256"
        },
        {
          "internalType": "address",
          "name": "seller",
          "type": "address"
        },
        {
          "internalType": "uint256",
          "name": "amountTotal",
          "type": "uint256"
        },
        {
          "internalType": "uint256",
          "name": "amountRemaining",
          "type": "uint256"
        },
        {
          "internalType": "uint256",
          "name": "pricePerTokenWei",
          "type": "uint256"
        },
        {
          "internalType": "bool",
          "name": "active",
          "type": "bool"
        }
      ],
      "stateMutability": "view",
      "type": "function"
    },
    {
      "inputs": [
        {
          "internalType": "string",
          "name": "plotId",
          "type": "string"
        },
        {
          "internalType": "address",
          "name": "nominee",
          "type": "address"
        }
      ],
      "name": "setNomineeForPlot",
      "outputs": [],
      "stateMutability": "nonpayable",
      "type": "function"
    },
    {
      "inputs": [
        {
          "internalType": "uint256",
          "name": "_tokensPerUnit",
          "type": "uint256"
        }
      ],
      "name": "setTokensPerUnit",
      "outputs": [],
      "stateMutability": "nonpayable",
      "type": "function"
    },
    {
      "inputs": [],
      "name": "symbol",
      "outputs": [
        {
          "internalType": "string",
          "name": "",
          "type": "string"
        }
      ],
      "stateMutability": "view",
      "type": "function"
    },
    {
      "inputs": [
        {
          "internalType": "address",
          "name": "",
          "type": "address"
        }
      ],
      "name": "tokensBought",
      "outputs": [
        {
          "internalType": "uint256",
          "name": "",
          "type": "uint256"
        }
      ],
      "stateMutability": "view",
      "type": "function"
    },
    {
      "inputs": [
        {
          "internalType": "address",
          "name": "",
          "type": "address"
        },
        {
          "internalType": "string",
          "name": "",
          "type": "string"
        }
      ],
      "name": "tokensFromPlot",
      "outputs": [
        {
          "internalType": "uint256",
          "name": "",
          "type": "uint256"
        }
      ],
      "stateMutability": "view",
      "type": "function"
    },
    {
      "inputs": [],
      "name": "tokensPerUnit",
      "outputs": [
        {
          "internalType": "uint256",
          "name": "",
          "type": "uint256"
        }
      ],
      "stateMutability": "view",
      "type": "function"
    },
    {
      "inputs": [
        {
          "internalType": "address",
          "name": "",
          "type": "address"
        }
      ],
      "name": "tokensSold",
      "outputs": [
        {
          "internalType": "uint256",
          "name": "",
          "type": "uint256"
        }
      ],
      "stateMutability": "view",
      "type": "function"
    },
    {
      "inputs": [
        {
          "internalType": "address",
          "name": "",
          "type": "address"
        }
      ],
      "name": "totalProceeds",
      "outputs": [
        {
          "internalType": "uint256",
          "name": "",
          "type": "uint256"
        }
      ],
      "stateMutability": "view",
      "type": "function"
    },
    {
      "inputs": [],
      "name": "totalSupply",
      "outputs": [
        {
          "internalType": "uint256",
          "name": "",
          "type": "uint256"
        }
      ],
      "stateMutability": "view",
      "type": "function"
    },
    {
      "inputs": [
        {
          "internalType": "address",
          "name": "to",
          "type": "address"
        },
        {
          "internalType": "uint256",
          "name": "value",
          "type": "uint256"
        }
      ],
      "name": "transfer",
      "outputs": [
        {
          "internalType": "bool",
          "name": "",
          "type": "bool"
        }
      ],
      "stateMutability": "nonpayable",
      "type": "function"
    },
    {
      "inputs": [
        {
          "internalType": "address",
          "name": "from",
          "type": "address"
        },
        {
          "internalType": "address",
          "name": "to",
          "type": "address"
        },
        {
          "internalType": "uint256",
          "name": "value",
          "type": "uint256"
        }
      ],
      "name": "transferFrom",
      "outputs": [
        {
          "internalType": "bool",
          "name": "",
          "type": "bool"
        }
      ],
      "stateMutability": "nonpayable",
      "type": "function"
    },
    {
      "inputs": [
        {
          "internalType": "address",
          "name": "newOwner",
          "type": "address"
        }
      ],
      "name": "transferOwnership",
      "outputs": [],
      "stateMutability": "nonpayable",
      "type": "function"
    },
    {
      "inputs": [
        {
          "internalType": "string",
          "name": "plotId",
          "type": "string"
        },
        {
          "internalType": "address",
          "name": "newWallet",
          "type": "address"
        }
      ],
      "name": "updatePlotWallet",
      "outputs": [],
      "stateMutability": "nonpayable",
      "type": "function"
    },
    {
      "inputs": [
        {
          "internalType": "address",
          "name": "",
          "type": "address"
        },
        {
          "internalType": "uint256",
          "name": "",
          "type": "uint256"
        }
      ],
      "name": "walletPlots",
      "outputs": [
        {
          "internalType": "string",
          "name": "",
          "type": "string"
        }
      ],
      "stateMutability": "view",
      "type": "function"
    },
    {
      "stateMutability": "payable",
      "type": "receive"
    }
  ],
  "bytecode": "0x6080604052346103ad57613a686020813803918261001c816103b2565b9384928339810103126103ad57516001600160a01b038116908190036103ad5761004660406103b2565b90600e82526d23a6a1902630b732102a37b5b2b760911b602083015261006c60406103b2565b600581526411d350d31560da1b602082015282519091906001600160401b0381116102b657600354600181811c911680156103a3575b602082101461029657601f811161033e575b506020601f82116001146102d757819293946000926102cc575b50508160011b916000199060031b1c1916176003555b81516001600160401b0381116102b657600454600181811c911680156102ac575b602082101461029657601f8111610231575b50602092601f82116001146101cc57928192936000926101c1575b50508160011b916000199060031b1c1916176004555b80156101ab57600580546001600160a01b03198116831790915560405191906001600160a01b03167f8be0079c531659141344cd1fd0a4f28419497f9722a3daafe3b4186f6b6457e0600080a36001600655600160125561369090816103d88239f35b631e4fbdf760e01b600052600060045260246000fd5b015190503880610132565b601f198216936004600052806000209160005b8681106102195750836001959610610200575b505050811b01600455610148565b015160001960f88460031b161c191690553880806101f2565b919260206001819286850151815501940192016101df565b60046000527f8a35acfbc15ff81a39ae7d344fd709f28e8600b4aa8c65c6b64bfe7fe36bd19b601f830160051c8101916020841061028c575b601f0160051c01905b8181106102805750610117565b60008155600101610273565b909150819061026a565b634e487b7160e01b600052602260045260246000fd5b90607f1690610105565b634e487b7160e01b600052604160045260246000fd5b0151905038806100ce565b601f198216906003600052806000209160005b8181106103265750958360019596971061030d575b505050811b016003556100e4565b015160001960f88460031b161c191690553880806102ff565b9192602060018192868b0151815501940192016102ea565b60036000527fc2575a0e9e593c00f959f8c92f12db2869c3395a3b0502d05e2516446f71f85b601f830160051c81019160208410610399575b601f0160051c01905b81811061038d57506100b4565b60008155600101610380565b9091508190610377565b90607f16906100a2565b600080fd5b6040519190601f01601f191682016001600160401b038111838210176102b65760405256fe6080604052600436101561001b575b361561001957600080fd5b005b60003560e01c806306dd0419146127df57806306fdde0314612737578063095ea7b3146126b15780630b200b5514612664578063105b068c1461258857806312a441361461252057806318160ddd146125025780631a46e42a146123dd5780631d865a05146123475780631df681021461222557806322c6e6e21461220757806323b872dd1461211a578063264d7797146120e05780632d81690814611f08578063313ce56714611eec57806334968ba714611ec057806334a9f04b14611e8f578063365a21e814611e055780633e69e86014611cba5780634a8393f314611c4a5780634afb66d514611c105780634cd5e03714611ab15780634e591f111461195d578063633f515e1461169a578063685f205114611635578063691380a31461118d5780636f29b1a91461114257806370024bc2146110af57806370a0823114611075578063715018a614611018578063781a393614610fe55780637daa10ce14610d7f5780638da5cb5b14610d565780638f58b1c014610b8457806395d89b4114610aa35780639b4dda1e146109b5578063a9059cbb14610984578063aa36fc99146107b4578063b1b128fb146106fc578063d455210a14610666578063d892cf6f146104d4578063dd62ed3e14610483578063e364440314610449578063e58306f91461041c578063f2fde38b14610392578063f8d28768146103745763fc6e89e50361000e573461036f5761023336612cc2565b6001600160a01b0316610247811515612fbe565b60405191600d8151936020818185019661026281838a612838565b810160088152030190200190610296602083549561028560ff8860a01c16612d03565b604051809381928651928391612838565b8101601481520301902080549260ff8460a01c1660048110156103595761031d946102c660026102d69314612fff565b6001600160a01b0316331461303b565b846001600160601b0360a01b8254161790558360005260096020526102ff826040600020613181565b805460ff60a01b1916600360a01b1781554260039190910155612f9e565b6040519182526001600160a01b039092169133917f3c7304b8282b734b16f7338949769fb21986c60ae6fff2c89e83f7490048d7ed90602090a4005b634e487b7160e01b600052602160045260246000fd5b600080fd5b3461036f57600036600319011261036f576020600754604051908152f35b3461036f57602036600319011261036f576103ab61280c565b6103b3613248565b6001600160a01b0316801561040657600580546001600160a01b0319811683179091556001600160a01b03167f8be0079c531659141344cd1fd0a4f28419497f9722a3daafe3b4186f6b6457e0600080a3005b631e4fbdf760e01b600052600060045260246000fd5b3461036f57604036600319011261036f5761001961043861280c565b610440613248565b602435906134c2565b3461036f57602036600319011261036f576001600160a01b0361046a61280c565b1660005260116020526020604060002054604051908152f35b3461036f57604036600319011261036f5761049c61280c565b6104a4612822565b6001600160a01b039182166000908152600160209081526040808320949093168252928352819020549051908152f35b3461036f57600036600319011261036f57600a546104f181612ec3565b9060005b818110610516576040516020808252819061051290820186612ae1565b0390f35b80610543602061053061052a600195612880565b5061295b565b8160405193828580945193849201612838565b8101600881520301902060ff600a820154600b830154600c84015490600d850154926106106009604051976105778961291e565b6105808161295b565b895261058d8b820161295b565b60208a015261059e6002820161295b565b60408a01526105af6003820161295b565b60608a01526105c06004820161295b565b60808a01526105d16005820161295b565b60a08a01526105e26006820161295b565b60c08a01526105f36007820161295b565b60e08a01526106046008820161295b565b6101008a01520161295b565b61012087015261014086015261016085015261018084015260006101a0840152848060a01b0381166101c084015260a01c1615156101e08201526106548286612f8a565b5261065f8185612f8a565b50016104f5565b3461036f57600036600319011261036f57600a5461068381612dbc565b90610691604051928361293a565b80825260208201600a6000527fc65a7bb8d6351c1cf70c95a316cc6a92839c986682d98bc35f958f4883f9d2a86000915b8383106106df576040516020808252819061051290820188612a72565b6001602081926106ee8561295b565b8152019201920191906106c2565b3461036f5761078d61070d36612cc2565b610718929192613248565b6001600160a01b03169161072d83151561320b565b600d60405160208184516107448183858901612838565b810160088152030190200161075f60ff825460a01c16612d03565b836001600160601b0360a01b825416179055826000526009602052610788816040600020613181565b612f9e565b7f3093e6ec25258b993bc59c90418df58ad94d5e9410052168e2d0265006d5ceb9600080a3005b3461036f57602036600319011261036f576004356001600160401b03811161036f576107e4903690600401612a2b565b60405181818093516020819301916107fb92612838565b8101600881520360200190206108108161295b565b61081c6001830161295b565b916108296002820161295b565b6108356003830161295b565b916108426004820161295b565b9261084f6005830161295b565b61085b6006840161295b565b6108676007850161295b565b6108736008860161295b565b916108806009870161295b565b93600a87015498600b88015496600c89015498600d0154996040519d8e809e6101e082526101e082016108b29161285b565b9080820390602001526108c49161285b565b8d810360408f01526108d59161285b565b8c810360608e01526108e69161285b565b8b810360808d01526108f79161285b565b8a810360a08c01526109089161285b565b89810360c08b01526109199161285b565b88810360e08a015261092a9161285b565b87810361010089015261093c9161285b565b86810361012088015261094e9161285b565b93610140860152610160850152610180840152600160a01b6001900381166101a084015260a01c60ff1615156101c08301520390f35b3461036f57604036600319011261036f576109aa6109a061280c565b60243590336132ce565b602060405160018152f35b3461036f57606036600319011261036f576004356001600160401b03811161036f576109e5903690600401612a2b565b6109ed612822565b907f7da62a25bb1eb9239dcc4bf9704255725861fcc200fa9871ba147b2fafcb751a6020610a9960443593610a20613248565b6001600160a01b038616956107889086908390610a3e8a151561320b565b610a49831515612dd3565b600c60405188818551610a5f8183858a01612838565b81016008815203019020610a7c60ff600d83015460a01c16612d03565b01610a888482546131ce565b9055610a9483826134c2565b6134dd565b92604051908152a3005b3461036f57600036600319011261036f576040516000600454610ac5816128c9565b8084529060018116908115610b605750600114610b01575b61051283610aed8185038261293a565b60405191829160208352602083019061285b565b600460009081527f8a35acfbc15ff81a39ae7d344fd709f28e8600b4aa8c65c6b64bfe7fe36bd19b939250905b808210610b4657509091508101602001610aed610add565b919260018160209254838588010152019101909291610b2e565b60ff191660208086019190915291151560051b84019091019150610aed9050610add565b3461036f57606036600319011261036f576004356001600160401b03811161036f57610bb66020913690600401612a2b565b602435604435610bc46132ac565b610bcf811515612e14565b610bff60ff600d60405187818851610bea8183858d01612838565b81016008815203019020015460a01c16612d03565b610c0b828430336133f8565b610ce660125493610c1b85612e54565b601255610cb8604051610c2d81612903565b86815260058882013381526040830188815260608401898152608085019189835260a0860193600185528c60005260138e5260406000209651875560018060a01b03905116600187019060018060a01b03166001600160601b0360a01b82541617905551600286015551600385015551600484015551151591019060ff801983541691151516179055565b84600052601786526040600020600160ff198254161790558460005260168652610788816040600020613076565b6040518381528286820152847fef73ddba3734a027ff46f58ff552beb8a1092c20a6fd38d0daa3c8dd5f44ce2d60403393a460405191825283820152817f80a49be05481ef1a555cd6ea5845b05ffa157f18a6e61d3030f9bc5d25f3294a60403393a36001600655604051908152f35b3461036f57600036600319011261036f576005546040516001600160a01b039091168152602090f35b3461036f57600036600319011261036f573360009081526020818152604080832054600f83528184205460108452828520546011855283862054600d9095529285208054909591949293909290825b848110610f9f5750610de8610de284612e79565b93612ec3565b93600097885b828a10610e0b575050506105129495965060405196879687612c5f565b610e1861052a8b846128b1565b33600052600c602052610e2f604060002082612c9c565b548015610f945791610f8b9160ff6001946040516020818551610e558183858a01612838565b8101600881520301902092610e6a858d612f8a565b52610e75848c612f8a565b50600a83015490600b840154600c85015490600d86015493610f38600960405198610e9f8a61291e565b610ea88161295b565b8a52610eb58d820161295b565b60208b0152610ec66002820161295b565b60408b0152610ed76003820161295b565b60608b0152610ee86004820161295b565b60808b0152610ef96005820161295b565b60a08b0152610f0a6006820161295b565b60c08b0152610f1b6007820161295b565b60e08b0152610f2c6008820161295b565b6101008b01520161295b565b6101208801526101408701526101608601526101808501526101a0840152858060a01b0381166101c084015260a01c1615156101e0820152610f7a828b612f8a565b52610f85818a612f8a565b50612e54565b995b0198610dee565b505098600190610f8d565b610fc3610faf61052a838b6128b1565b33600052600c602052604060002090612c9c565b54610fd1575b600101610dce565b92610fdd600191612e54565b939050610fc9565b3461036f57602036600319011261036f57600435600a5481101561036f57610aed61101261051292612880565b906129ff565b3461036f57600036600319011261036f57611031613248565b600580546001600160a01b031981169091556000906001600160a01b03167f8be0079c531659141344cd1fd0a4f28419497f9722a3daafe3b4186f6b6457e08280a3005b3461036f57602036600319011261036f576001600160a01b0361109661280c565b1660005260006020526020604060002054604051908152f35b3461036f57602036600319011261036f576004356110cb613248565b801561110a5760407ff0f642e08be877441ce241f624d5cb16e80a6ea614ed288fbcb1f46f93add68f91600754908060075582519182526020820152a1005b60405162461bcd60e51b815260206004820152601060248201526f052617465206d757374206265203e20360841b6044820152606490fd5b3461036f57602036600319011261036f576004356001600160401b03811161036f57611178602061053081933690600401612a2b565b8101600b815203019020541515604051908152f35b3461036f576101a036600319011261036f576004356001600160401b03811161036f576111be903690600401612a2b565b6024356001600160401b03811161036f576111dd903690600401612a2b565b906044356001600160401b03811161036f576111fd903690600401612a2b565b906064356001600160401b03811161036f5761121d903690600401612a2b565b926084356001600160401b03811161036f5761123d903690600401612a2b565b9060a4356001600160401b03811161036f5761125d903690600401612a2b565b9360c4356001600160401b03811161036f5761127d903690600401612a2b565b60e4356001600160401b03811161036f5761129c903690600401612a2b565b610104356001600160401b03811161036f576112bc903690600401612a2b565b90610124356001600160401b03811161036f576112dd903690600401612a2b565b926101643598610184359760018060a01b0389169b8c8a0361036f57611301613248565b6040518b5160208d01999190819061131a81838e612838565b810160088152036020019020600d015460a01c60ff166115fa5761133f8e151561320b565b600754156115c0578c15611582576040518c51819061135f81838e612838565b810160088152036020019020996113768d8c613076565b6113839060018c01613076565b6113909060028b01613076565b61139d9060038a01613076565b6113aa9060048901613076565b6113b79060058801613076565b6113c49060068701613076565b6113d19060078601613076565b6113de9060088501613076565b6113eb9060098401613076565b61014435600a830155600d8201805460ff60a01b1988166001600160a81b031990911617600160a01b17905560405184518190611429818386612838565b8101600b815203602001902054156114c5575b50926114a17f5bffeaa926ea0f1f6a50193d6195b253a3c689ed8c60bc91ddf6c8280e0d0345936040938684600b600c99015561147b600754866131ae565b97889101558682816114af575b5050508660005260096020526107888185600020613181565b9382519182526020820152a3005b82610a94836114bd956134c2565b878682611488565b91939092600a54600160401b81101561156c578060016114ea9201600a55600a6128b1565b91909161155657600c957f5bffeaa926ea0f1f6a50193d6195b253a3c689ed8c60bc91ddf6c8280e0d034595604095611526846114a196613076565b61153f6020600a54928951809381928951928391612838565b8101600b815203019020559396509350935061143c565b634e487b7160e01b600052600060045260246000fd5b634e487b7160e01b600052604160045260246000fd5b60405162461bcd60e51b815260206004820152601660248201527504c616e642076616c7565206d757374206265203e20360541b6044820152606490fd5b60405162461bcd60e51b8152602060048201526012602482015271151bdad95b881c985d19481b9bdd081cd95d60721b6044820152606490fd5b60405162461bcd60e51b8152602060048201526013602482015272506c6f7420616c72656164792065786973747360681b6044820152606490fd5b3461036f57604036600319011261036f5761164e61280c565b6024356001600160401b03811161036f57602091611673611691923690600401612a2b565b6001600160a01b039091166000908152600c84526040902090612c9c565b54604051908152f35b6116a336612acb565b906116ac6132ac565b806000526013602052604060002060058101908154906116ce60ff8316612d7d565b6116d9851515612dd3565b600381019283549283871161191857670de0b6b3a76400006116ff6004850154896131ae565b04948534106118dc5760016000959486959486959489946117218d89986131c1565b809155156118cf575b5050888452601760205260ff60408520541684146118bf5788845260166020526117618a61175a6040872061295b565b33306133f8565b0180546001600160a01b03168352600f6020526040832080546117859084906131ce565b905533835260106020526040832061179e8a82546131ce565b905580546001600160a01b0316835260116020526040832080546117c3908b906131ce565b9055546001600160a01b03165af16117d96131db565b501561187a576117e981346131c1565b80611828575b5060405192835260208301527f868d789fdb4bef729c9163c7ea9215ec181d41d023ca7fa8e3ab46b0db7bf4e660403393a36001600655005b600080808093335af16118396131db565b501561184557836117ef565b60405162461bcd60e51b815260206004820152600d60248201526c1499599d5b990819985a5b1959609a1b6044820152606490fd5b60405162461bcd60e51b815260206004820152601860248201527f5061796d656e7420746f2073656c6c6572206661696c656400000000000000006044820152606490fd5b6118ca8a33306132ce565b611761565b60ff191690558a8061172a565b60405162461bcd60e51b8152602060048201526014602482015273125b9cdd59999a58da595b9d081c185e5b595b9d60621b6044820152606490fd5b60405162461bcd60e51b815260206004820152601a60248201527f4e6f7420656e6f75676820746f6b656e7320696e206f726465720000000000006044820152606490fd5b3461036f57602036600319011261036f576004356001600160401b03811161036f5761198d903690600401612a2b565b611995613248565b6119b8602060405161028560ff600d8651938581818a0196610bea81838a612838565b81016014815203019020805460ff8160a01c16600481101561035957600103611a78576001600160a01b031615611a4157805460ff60a01b198116600160a11b178255426002909201919091556001600160a01b0316903390611a1a90612f9e565b7fcb8e43aa5e2b61d4f38f85d8796fe2dafa24797d7927f5a8312711e55bfe9c21600080a4005b60405162461bcd60e51b815260206004820152600f60248201526e139bdb5a5b9959481b9bdd081cd95d608a1b6044820152606490fd5b60405162461bcd60e51b81526020600482015260116024820152704e6f20616374697665206e6f6d696e656560781b6044820152606490fd5b3461036f57611abf36612cc2565b906001600160a01b03821690611ad6821515612fbe565b60405190600d81519260208181850195611af1818389612838565b8101600881520301902001611b246020825494611b1360ff8760a01c16612d03565b604051809381928751928391612838565b810160148152030190209081549360ff8560a01c16600481101561035957611ba9956102c66002611b559314612fff565b60018060a01b03169586600052600c602052611b75604060002085612c9c565b548481611bd7575b505050846001600160601b0360a01b8254161790558360005260096020526102ff826040600020613181565b6040519182527f3c7304b8282b734b16f7338949769fb21986c60ae6fff2c89e83f7490048d7ed60203393a4005b611c0892611be5838b613271565b89600052600c6020526000611bfd6040822084612c9c565b55610a9483826134c2565b868084611b7d565b3461036f57602036600319011261036f576001600160a01b03611c3161280c565b16600052600f6020526020604060002054604051908152f35b3461036f57602036600319011261036f57600435600052601360205260c0604060002080549060018060a01b0360018201541690600281015460038201549060ff6005600485015494015416936040519586526020860152604085015260608401526080830152151560a0820152f35b3461036f57611cc836612cc2565b6001600160a01b0316908115611dce57611d9460405160006003611d4a6020600d8751958281818b0198611cfd81838c612838565b810160088152030190200194611d398654611d1d60ff8260a01c16612d03565b6005546001600160a01b03163314908115611dbb575b50612d40565b604051809381928a51928391612838565b601490820190815203019020805460ff60a01b1988166001600160a81b031990911617600160a01b178155426001820155600281018390550155546001600160a01b031691612f9e565b7fd3bd942bc038c51fff68f5eff3622237902616d55bea450c3f3a6ac403981eb6600080a4005b6001600160a01b0316331490508b611d33565b60405162461bcd60e51b815260206004820152600f60248201526e496e76616c6964206e6f6d696e656560881b6044820152606490fd5b3461036f57602036600319011261036f576004356001600160401b03811161036f576020610530611e3a923690600401612a2b565b81016014815203019020805460ff8160a01c169160018101549060036002820154910154916040519360018060a01b0316845260048510156103595760a0946020850152604084015260608301526080820152f35b3461036f57602036600319011261036f576004356000526017602052602060ff604060002054166040519015158152f35b3461036f57602036600319011261036f576004356000526016602052610512610aed604060002061295b565b3461036f57600036600319011261036f57602060405160128152f35b3461036f57602036600319011261036f576001600160a01b03611f2961280c565b1660008181526020818152604080832054600f83528184205460108452828520546011855283862054600d9095529285208054909691959294919390835b81811061209a5750611f81611f7b85612e79565b94612ec3565b946000805b838210611fa25789896105128a8a8a8a60405196879687612c5f565b86611fb061052a848e6128b1565b84600052600c602052611fc7604060002082612c9c565b5490811561208e579160ff8492612085946120036001976040516020818551611ff38183858a01612838565b8101600881520301902095612f8a565b5261200e848d612f8a565b50600a83015490600b840154600c85015490600d86015493612038600960405198610e9f8a61291e565b6101208801526101408701526101608601526101808501526101a0840152858060a01b0381166101c084015260a01c1615156101e082015261207a828c612f8a565b52610f85818b612f8a565b915b0190611f86565b50505090600190612087565b6120be6120aa61052a838c6128b1565b87600052600c602052604060002090612c9c565b546120cc575b600101611f67565b936120d8600191612e54565b9490506120c4565b3461036f57602036600319011261036f576001600160a01b0361210161280c565b1660005260106020526020604060002054604051908152f35b3461036f57606036600319011261036f5761213361280c565b61213b612822565b6001600160a01b038216600081815260016020908152604080832033845290915290205490926044359291600019811061217b575b506109aa93506132ce565b8381106121ea5784156121d45733156121be576109aa946000526001602052604060002060018060a01b0333166000526020528360406000209103905584612170565b634a1406b160e11b600052600060045260246000fd5b63e602df0560e01b600052600060045260246000fd5b8390637dc7a0d960e11b6000523360045260245260445260646000fd5b3461036f57600036600319011261036f576020600a54604051908152f35b3461036f57602061223536612acb565b9061223e6132ac565b612249811515612dd3565b612254821515612e14565b61225f8130336132ce565b6012549161226c83612e54565b60125561230960405161227e81612903565b84815260058682013381526040830186815260608401878152608085019187835260a0860193600185528a60005260138c5260406000209651875560018060a01b03905116600187019060018060a01b03166001600160601b0360a01b82541617905551600286015551600385015551600484015551151591019060ff801983541691151516179055565b60405191825283820152817f80a49be05481ef1a555cd6ea5845b05ffa157f18a6e61d3030f9bc5d25f3294a60403393a36001600655604051908152f35b3461036f57602036600319011261036f576001600160a01b0361236861280c565b1660005260096020526040600020805461238181612dbc565b9161238f604051938461293a565b818352602083019060005260206000206000915b8383106123c0576040516020808252819061051290820188612a72565b6001602081926123cf8561295b565b8152019201920191906123a3565b3461036f57602036600319011261036f576004356123f96132ac565b806000526013602052604060002090600582019182549261241c60ff8516612d7d565b60018201546001600160a01b031633036124cc576003600092019081549460ff19169055558115158061247e575b506040519182527fb3b66e9278cc82d38e08c6ea63c8a306e6e4a14cfde056b77230c8b321238edd60203393a36001600655005b612489575b8261244a565b80600052601760205260ff604060002054166000146124c1578060005260166020526124bc8261175a604060002061295b565b612483565b6124bc8233306132ce565b60405162461bcd60e51b815260206004820152600e60248201526d2737ba103cb7bab91037b93232b960911b6044820152606490fd5b3461036f57600036600319011261036f576020600254604051908152f35b3461036f57602036600319011261036f57600435600a5481101561254d57610aed61052a61051292612880565b60405162461bcd60e51b8152602060048201526013602482015272496e646578206f7574206f6620626f756e647360681b6044820152606490fd5b3461036f57602036600319011261036f576004356001600160401b03811161036f57600361262560206125c16000943690600401612a2b565b60405190612614600d8251938581818601966125de81838a612838565b8101600881520301902001546125f960ff8260a01c16612d03565b6005546001600160a01b031633149081156126515750612d40565b604051938492839251928391612838565b60149082019081520301902080546001600160a81b031916815560018101839055600281018390550155005b6001600160a01b03163314905088611d33565b3461036f57604036600319011261036f5761267d61280c565b6001600160a01b0316600090815260096020526040902080546024359081101561036f57611012610aed91610512936128b1565b3461036f57604036600319011261036f576126ca61280c565b6024359033156121d4576001600160a01b03169081156121be57336000526001602052604060002082600052602052806040600020556040519081527f8c5be1e5ebec7d5bd14f71427d1e84f3dd0314c0f7b2291e5b200ac8c7c3b92560203392a3602060405160018152f35b3461036f57600036600319011261036f576040516000600354612759816128c9565b8084529060018116908115610b6057506001146127805761051283610aed8185038261293a565b600360009081527fc2575a0e9e593c00f959f8c92f12db2869c3395a3b0502d05e2516446f71f85b939250905b8082106127c557509091508101602001610aed610add565b9192600181602092548385880101520191019092916127ad565b3461036f57604036600319011261036f576100196127fb61280c565b612803613248565b60243590613271565b600435906001600160a01b038216820361036f57565b602435906001600160a01b038216820361036f57565b60005b83811061284b5750506000910152565b818101518382015260200161283b565b9060209161287481518092818552858086019101612838565b601f01601f1916010190565b600a5481101561289b57600a60005260206000200190600090565b634e487b7160e01b600052603260045260246000fd5b805482101561289b5760005260206000200190600090565b90600182811c921680156128f9575b60208310146128e357565b634e487b7160e01b600052602260045260246000fd5b91607f16916128d8565b60c081019081106001600160401b0382111761156c57604052565b61020081019081106001600160401b0382111761156c57604052565b90601f801991011681019081106001600160401b0382111761156c57604052565b906040519182600082549261296f846128c9565b80845293600181169081156129dd5750600114612996575b506129949250038361293a565b565b90506000929192526020600020906000915b8183106129c15750509060206129949282010138612987565b60209193508060019154838589010152019101909184926129a8565b90506020925061299494915060ff191682840152151560051b82010138612987565b9061155657612a0d9061295b565b90565b6001600160401b03811161156c57601f01601f191660200190565b81601f8201121561036f57803590612a4282612a10565b92612a50604051948561293a565b8284526020838301011161036f57816000926020809301838601378301015290565b9080602083519182815201916020808360051b8301019401926000915b838310612a9e57505050505090565b9091929394602080612abc600193601f19868203018752895161285b565b97019301930191939290612a8f565b604090600319011261036f576004359060243590565b9080602083519182815201916020808360051b8301019401926000915b838310612b0d57505050505090565b9091929394602080612b5f836101e080612c05612bf1612bdd612bcb8f612ba7612b958f8f60019f8e612bb996612b8394612b7094601f19908503019052519e8f92610200845191818152019061285b565b9101518f8e9081840391015261285b565b60408d01518c604081840391015261285b565b60608c01518b820360608d015261285b565b60808b01518a820360808c015261285b565b60a08a015189820360a08b015261285b565b60c089015188820360c08a015261285b565b60e088015187820360e089015261285b565b61010087015186820361010088015261285b565b61012086015185820361012087015261285b565b936101408101516101408501526101608101516101608501526101808101516101808501526101a08101516101a0850152878060a01b036101c0820151166101c08501520151151591015297019301930191939290612afe565b949192612c8e93612a0d979592875260208701526040860152606085015260c0608085015260c0840190612a72565b9160a0818403910152612ae1565b602090612cb6928260405194838680955193849201612838565b82019081520301902090565b604060031982011261036f57600435906001600160401b03821161036f57612cec91600401612a2b565b906024356001600160a01b038116810361036f5790565b15612d0a57565b60405162461bcd60e51b815260206004820152600e60248201526d141b1bdd081b9bdd08199bdd5b9960921b6044820152606490fd5b15612d4757565b60405162461bcd60e51b815260206004820152600e60248201526d139bdd08185d5d1a1bdc9a5e995960921b6044820152606490fd5b15612d8457565b60405162461bcd60e51b815260206004820152601060248201526f4f72646572206e6f742061637469766560801b6044820152606490fd5b6001600160401b03811161156c5760051b60200190565b15612dda57565b60405162461bcd60e51b81526020600482015260126024820152710416d6f756e74206d757374206265203e20360741b6044820152606490fd5b15612e1b57565b60405162461bcd60e51b815260206004820152601160248201527005072696365206d757374206265203e203607c1b6044820152606490fd5b6000198114612e635760010190565b634e487b7160e01b600052601160045260246000fd5b90612e8382612dbc565b612e90604051918261293a565b8281528092612ea1601f1991612dbc565b019060005b828110612eb257505050565b806060602080938501015201612ea6565b90612ecd82612dbc565b612eda604051918261293a565b8281528092612eeb601f1991612dbc565b019060005b828110612efc57505050565b602090604051612f0b8161291e565b606081526060838201526060604082015260608082015260606080820152606060a0820152606060c0820152606060e08201526060610100820152606061012082015260006101408201526000610160820152600061018082015260006101a082015260006101c082015260006101e082015282828501015201612ef0565b805182101561289b5760209160051b010190565b612fb690602060405192828480945193849201612838565b810103902090565b15612fc557565b60405162461bcd60e51b8152602060048201526012602482015271125b9d985b1a59081b995dc81dd85b1b195d60721b6044820152606490fd5b1561300657565b60405162461bcd60e51b815260206004820152600d60248201526c4e6f7420636c61696d61626c6560981b6044820152606490fd5b1561304257565b60405162461bcd60e51b815260206004820152600c60248201526b4f6e6c79206e6f6d696e656560a01b6044820152606490fd5b91909182516001600160401b03811161156c5761309382546128c9565b601f8111613139575b506020601f82116001146130d757819293946000926130cc575b50508160011b916000199060031b1c1916179055565b0151905038806130b6565b601f1982169083600052806000209160005b81811061312157509583600195969710613108575b505050811b019055565b015160001960f88460031b161c191690553880806130fe565b9192602060018192868b0151815501940192016130e9565b826000526020600020601f830160051c81019160208410613177575b601f0160051c01905b81811061316b575061309c565b6000815560010161315e565b9091508190613155565b8054600160401b81101561156c5761319e916001820181556128b1565b9190916115565761299491613076565b81810292918115918404141715612e6357565b91908203918211612e6357565b91908201809211612e6357565b3d15613206573d906131ec82612a10565b916131fa604051938461293a565b82523d6000602084013e565b606090565b1561321257565b60405162461bcd60e51b815260206004820152600e60248201526d125b9d985b1a59081dd85b1b195d60921b6044820152606490fd5b6005546001600160a01b0316330361325c57565b63118cdaa760e01b6000523360045260246000fd5b906001600160a01b038216156132965760006129949260ff6015541661357157613571565b634b637e8f60e11b600052600060045260246000fd5b6002600654146132bd576002600655565b633ee5aeb560e01b60005260046000fd5b9291906001600160a01b0384168015613296576001600160a01b038216156133e25760ff6015541615613307575b506129949293613571565b82156132fc57919392849083600052600d6020526040600020956000925b87548410806133d9575b156133c85761334161052a858a6128b1565b86600052600c602052613358604060002082612c9c565b549081156133bc576133ac926133a16133a693613383938382116000146133b25783948580936131c1565b8c600052600c60205261339a604060002083612c9c565b558a6134dd565b6131c1565b93612e54565b92613325565b81948580936131c1565b5050926133ac90612e54565b5093509450506129949293926132fc565b5080151561332f565b63ec442f0560e01b600052600060045260246000fd5b929190613406831515612dd3565b6001600160a01b0384166000818152600c60205260409020849061342a9085612c9c565b541061347d5761344b848361299497600160ff196015541617601555613571565b60ff1960155416601555600052600c60205261346b604060002083612c9c565b6134768482546131c1565b90556134dd565b60405162461bcd60e51b815260206004820152601b60248201527f4e6f7420656e6f75676820746f6b656e732066726f6d20706c6f7400000000006044820152606490fd5b906001600160a01b038216156133e257612994916000613571565b821561356c5760018060a01b03169182600052600c60205261350e613506604060002084612c9c565b9182546131ce565b905581600052600e60205260ff613529604060002083612c9c565b541615613534575050565b8161299492600052600e60205261354f604060002083612c9c565b600160ff19825416179055600052600d6020526040600020613181565b505050565b6001600160a01b031690816135ed5760207fddf252ad1be2c89b69c2b068fc378daa952ba7f163c4a11628f55a4df523b3ef916135b0856002546131ce565b6002555b6001600160a01b031693846135d55780600254036002555b604051908152a3565b846000526000825260406000208181540190556135cc565b81600052600060205260406000205483811061363d577fddf252ad1be2c89b69c2b068fc378daa952ba7f163c4a11628f55a4df523b3ef91846020928560005260008452036040600020556135b4565b91905063391434e360e21b60005260045260245260445260646000fdfea2646970667358221220081673d7def9a9961547c8ebede8a022dffe616e8505f1bd1966da5196aa955864736f6c634300081c0033",
  "linkReferences": {},
  "deployedLinkReferences": {}
}